:100000000C945D000C9485000C9485000C94850084
:100010000C9485000C9485000C9485000C9485004C
:100020000C9485000C9485000C9485000C9485003C
:100030000C9485000C9485000C9485000C9485002C
:100040000C94830B0C9485000C94E30A0C94BD0A69
:100050000C9485000C9485000C9485000C9485000C
:100060000C94A3080C948500000000080002010015
:100070000003040700000000000000000000000072
:10008000250028002B0000000000240027002A0083
:10009000040404040404040402020202020203032E
:1000A0000303030301020408102040800102040836
:1000B00010200102040810208C1211241FBECFEF63
:1000C000D8E0DEBFCDBF11E0A0E0B1E0E0EBF6E2AA
:1000D00002C005900D92AA3EB107D9F726E0AAEE1C
:1000E000B1E001C01D92A230B207E1F710E0CDE50A
:1000F000D0E004C02197FE010E942A13CC35D1071D
:10010000C9F70E94DA0F0C9456130C940000DC011E
:100110005996ED91FC915A973097B9F0838994895B
:10012000A589B6894285538564857585841B950BA1
:10013000A60BB70B811520E89207A105B10538F091
:100140008FEF9FE7A0E0B0E0089580E090E0089591
:10015000CF93DF931F92CDB7DEB76983DC01ED91BA
:10016000FC910280F381E02D41E050E0BE016F5F21
:100170007F4F09950F90DF91CF91089585ED809382
:10018000BC008091BC0084FDFCCF10923202089527
:1001900040910C02262F30E0240F311D2132310511
:1001A000DCF4209132022430C9F4FC0180E090E0BC
:1001B000861758F430910C022191DC01A651BE4FF4
:1001C000A30FB11D2C930196F3CF80910C02680F01
:1001D00060930C0280E0089581E0089582E0089524
:1001E000089581E090E0309162022091610232171F
:1001F00010F480E090E091958195910908958091A7
:10020000620290916102891730F48F5F80936202DD
:1002100080E090E008958FEF9FEF08958091610254
:1002200090E020916202821B91090895CF93DF93A1
:1002300000D0CDB7DEB7CB01642F49835A830E942B
:10024000C8004981842F5A81952F0F900F90DF911C
:10025000CF910895CF93DF931F92CDB7DEB7698317
:1002600061E0CE0101960E94C80081E090E00F900D
:10027000DF91CF910895CF93DF931F92CDB7DEB773
:10028000FC01818D928D009751F0BE016F5F7F4F11
:100290000E94940E019719F4898190E002C08FEFBB
:1002A0009FEF0F90DF91CF9108958FB7F8948091D1
:1002B00059028FBF089561E0FC0184810E94150BF3
:1002C0008091580281111092580208958EBD00004D
:1002D0000DB407FEFDCF8EB508958FEF0C94660127
:1002E0000F931F93CF93DF93EB010E94770B8B014A
:1002F0000E946D018F3F49F00E94770B601B710BCC
:100300006C177D07A8F380E001C081E0DF91CF91F9
:100310001F910F910895CF93DF93EC018E81882375
:1003200089F08F8198859C012F5F3F4F38872F83FD
:100330008230924018F40E946D01F3CFCE010E94EA
:100340005B011E82DF91CF9108958CBD9DBD089504
:10035000CF93DF93EC0180915802811109C081E0B5
:100360008093580280915405909155050E94A501F3
:1003700060E08C81DF91CF910C94150BCF92DF92CE
:10038000FF920F931F93CF93DF9300D000D0CDB790
:10039000DEB76C01F62E29833A834B835C830E947F
:1003A0008B01C6010E94A8016CE271E0C6010E94A7
:1003B00070018F2D80640E94660108E110E05C816D
:1003C0004B813A812981DA01C901002E04C0B6951A
:1003D000A795979587950A94D2F729833A834B83FB
:1003E0005C830E9466010850110929813A814B8182
:1003F0005C81083F8FEF180731F7FF2029F0E8E014
:10040000FE1204C087E803C085E901C08FEF0E9497
:10041000660110E00E946D01F601828787FF04C02B
:100420001F3F11F01F5FF6CF0F900F900F900F90AE
:10043000DF91CF911F910F91FF90DF90CF900895A2
:10044000AF92BF92CF92DF92EF92FF920F931F93E2
:10045000CF93DF93EC016901C801820F931F8130B4
:10046000924008F070C08E81882371F08881998154
:10047000AA81BB81481759076A077B0729F48F8136
:100480009885C816D906B0F5488359836A837B835B
:100490008B85833039F089E0440F551F661F771F25
:1004A0008A95D1F79A01AB0161E1CE010E94BE01AC
:1004B000882319F083E08D8346C00E94770B5B018F
:1004C0000E946D018A878F3F49F40E94770B6A1959
:1004D0007B096D327140A0F38FE003C08E3F31F095
:1004E0008DE08D83CE010E945B012DC018861F8296
:1004F00081E08E838F8198858C159D0540F40E9444
:100500006D018F819885019698878F83F3CF67015E
:10051000E00EF11ECE14DF0431F00E946D01F601F1
:1005200081936F01F7CF8F819885080F191F188766
:100530000F838985882319F00115124048F0CE01F8
:100540000E948B0105C0CE010E945B0180E001C0CA
:1005500081E0DF91CF911F910F91FF90EF90DF909D
:10056000CF90BF90AF900895EF92FF920F931F939B
:10057000CF93DF93EC0179014115510561057105B8
:1005800011F482E13CC08B85833039F089E0440F5F
:10059000551F661F771F8A95D1F79A01AB0168E155
:1005A000CE010E94BE01882311F084E028C08EEFA6
:1005B0000E94660187018EEFF81AF80181918F0180
:1005C0000E9466010E151F05C1F78FEF0E9466019C
:1005D0008FEF0E9466010E946D018A878F718530BE
:1005E00031F081E18D83CE010E945B0109C068E595
:1005F00072E0CE010E947001811107C085E18D83F8
:10060000CE010E945B0180E013C020E030E0A90130
:100610006DE0CE010E94BE01811104C00E946D01F7
:10062000882311F084E1EBCFCE010E945B0181E0D1
:10063000DF91CF911F910F91FF90EF9008958091DE
:100640005A028823A9F14091000150910101609163
:100650000201709103012DE632E080916D049091CA
:100660006E040E94B402811102C080E0089540919E
:100670005B0250915C0260915D0270915E024115D7
:1006800051056105710591F02DE632E080916D0410
:1006900090916E040E94B402882339F310925B0299
:1006A00010925C0210925D0210925E0210925A0249
:1006B00081E008958F929F92AF92BF92EF92FF9246
:1006C0000F931F93CF934B015C01C42F80910001C6
:1006D00090910101A0910201B09103018815990543
:1006E000AA05BB0501F10E941F03811102C080E031
:1006F00020C08DE6E82E82E0F82E00E012E020E037
:1007000030E0B501A40180916D0490916E040E94C7
:100710002002882361F38092000190920101A0924F
:100720000201B092030180915A02C82BC0935A0271
:1007300081E0CF911F910F91FF90EF90BF90AF900C
:100740009F908F9008954F925F926F927F928F92B9
:100750009F92AF92BF92CF92DF92EF92FF920F9350
:100760001F93CF93DF93EC016A017B0128013901CC
:10077000423051056105710510F480E073C0898530
:100780009A85AB85BC850196A11DB11D841795077F
:10079000A607B70790F38B889C88AD88BE888F89A1
:1007A000803129F4BB27AF2D9E2D8D2D09C0DB0193
:1007B000CA0147E0B695A795979587954A95D1F7D1
:1007C000880E991EAA1EBB1E809100019091010106
:1007D000A0910201B091030188169906AA06BB06F2
:1007E00079F48F898031A1F4DD24EE24FF24C60141
:1007F000880F991FFC01E359FD4F5182408219C0B7
:1008000040E0C501B4010E945A038111EACFB5CF7F
:10081000E894C7F8DD24EE24FF24C601880F991F51
:10082000880F991FFC01E359FD4F4082518262827B
:10083000738280915A02816080935A028A89823041
:1008400080F08D819E81AF81B885880E991EAA1E89
:10085000BB1E80925B0290925C02A0925D02B092FD
:100860005E0281E0DF91CF911F910F91FF90EF9099
:10087000DF90CF90BF90AF909F908F907F906F90C0
:100880005F904F9008958F929F92AF92BF92CF92B8
:10089000DF92EF92FF920F931F93CF93DF93FC01B0
:1008A00081859285A385B4850196A11DB11D84170C
:1008B0009507A607B70710F480E05CC08389948988
:1008C000A589B689C789C03129F4852E962EA72E11
:1008D000BB2409C04A015B01C7E0B694A794979472
:1008E0008794CA95D1F7E9016A017B018F01BC01A8
:1008F000CD01680D791D8A1D9B1D8090000190908F
:100900000101A0900201B0900301681579058A05E4
:100910009B0599F4F80187898031A9F4B701A601F4
:10092000552766277727440F551FFA01E359FD4FD6
:1009300080819181A0E0B0E018C040E00E945A039D
:100940008111E8CFB9CFB701A6014F7755276627A8
:100950007727440F551F440F551FFA01E359FD4FE8
:1009600080819181A281B381BF7088839983AA839A
:10097000BB8381E0DF91CF911F910F91FF90EF90AA
:10098000DF90CF90BF90AF909F908F9008958F92FF
:100990009F92AF92BF92CF92DF92EF92FF920F930E
:1009A0001F93CF93DF93EC018D81811102C080E012
:1009B00077C00B891C892D893E89041715072607E6
:1009C0003707A8F36A017B01823029F4CA86DB86E7
:1009D000EC86FD860DC0C114D104E104F10451F48C
:1009E0001E821F82188619861A861B861C861D8603
:1009F00081E056C08A849B84AC84BD84EB8DFC8DE1
:100A0000258530E0275F3F4FB501A40141505109D2
:100A100061097109022E04C076956795579547952F
:100A20000A94D2F7D701C6010197A109B10904C000
:100A3000B695A795979587952A95D2F78417950728
:100A4000A607B70720F089288A288B2849F44F8900
:100A5000588D698D7A8D4E835F836887798704C04E
:100A6000841B950BA60BB70B4C015D018E010A5F31
:100A70001F4F81149104A104B10409F4A7CF4E8142
:100A80005F816885798598018B8D9C8D0E944304D8
:100A900091E0891A9108A108B1088111EACF87CFA6
:100AA000DF91CF911F910F91FF90EF90DF90CF904A
:100AB000BF90AF909F908F900895EF92FF920F9309
:100AC0001F93CF93DF931F92CDB7DEB7FC01818DCB
:100AD000928D009701F17F01BE016F5F7F4F0E94F1
:100AE000940E019719F4098110E002C00FEF1FEF77
:100AF0000F3F8FEF180789F0F701818D928DFC0170
:100B00004285538564857585415051096109710994
:100B10000E94C70402C000E010E0C8010F90DF91FE
:100B2000CF911F910F91FF90EF9008953F924F92B8
:100B30005F926F927F928F929F92AF92BF92CF926D
:100B4000DF92EF92FF920F931F93CF93DF93CDB776
:100B5000DEB72C970FB6F894DEBF0FBECDBF5C0199
:100B6000DC015B968D909C905C971696CD90DD9005
:100B7000ED90FC901997C114D104E104F10439F00F
:100B8000BFEFCB1ADB0AEB0AFB0A312C07C0F401DA
:100B9000C080D180E280F38033243394F4018185D6
:100BA0009285A385B4859C01AD012F5F3F4F4F4FC8
:100BB0005F4F29873A874B875C87260137011D8263
:100BC0001E821F821886F40181859285A385B485D3
:100BD0002D813E814F815885281739074A075B07C9
:100BE00008F063C089859A85AB85BC858C159D0509
:100BF000AE05BF0550F482E0C82ED12CE12CF12CBB
:100C000092E0492E512C612C712C9E012F5F3F4F99
:100C1000B701A601C4010E944304882309F445C01A
:100C200089819A81AB81BC81892B8A2B8B2B41F0E6
:100C3000260137019FEF491A590A690A790A05C046
:100C4000C414D504E604F70491F02D813E814F8150
:100C500058852F5F3F4F4F4F5F4F2D833E834F830C
:100C600058873FEFC31AD30AE30AF30AACCF0FEF5A
:100C70001FEF2FEF3FE0B301A201C4010E94A303C5
:100C8000882399F0D50116964D915D916D917C91D7
:100C90001997411551056105710549F093018201CC
:100CA000C4010E94A303811102C080E02AC0D501C3
:100CB00016964D925D926D927C921997332051F069
:100CC000D301C2010196A11DB11DF401808391835E
:100CD000A283B383F5018789908DA18DB28D892B75
:100CE0008A2B8B2B69F4D50157964D925D926D92AC
:100CF0007C925A9714968C911497806814968C93D2
:100D000081E02C960FB6F894DEBF0FBECDBFDF9109
:100D1000CF911F910F91FF90EF90DF90CF90BF90F8
:100D2000AF909F908F907F906F905F904F903F908B
:100D30000895CF93DF93FC01248127FF2EC0EC019F
:100D4000668577858089918941E00E945A038823CE
:100D500041F1EA8980E2E89FF0011124DF01A35903
:100D6000BD4F1097F1F08D81823050F44B895C8932
:100D70006D897E895C964D935D936D937C935F97AF
:100D80008F89988DA98DBA8DE359FD4F938F828FEE
:100D9000B58BA48B8C818F778C83DF91CF910C9452
:100DA0001F0380E0DF91CF910895FC01818D928D2A
:100DB000009729F0FC01258121110C9499060895D2
:100DC0002F923F924F925F926F927F928F929F925B
:100DD000AF92BF92CF92DF92EF92FF920F931F9349
:100DE000CF93DF9300D000D0CDB7DEB78C015B018D
:100DF0001A01DC0115968C9115978130C9F414966F
:100E00008C9181FF15C082FF1DC0F8014389548970
:100E10006589768982859385A485B585841795072C
:100E2000A607B70779F0C8010E94C70481110AC05C
:100E300081E090E0D80113969C938E93129780E006
:100E400090E03DC1610183C0D8015B968D919C917A
:100E50005C97FC01248121502A013B0139E0769402
:100E60006794579447943A95D1F7722E74207A017B
:100E7000F1E0FF22772009F476C080E092E08E193D
:100E80009F0946018C159D0508F44C01D8015B961D
:100E90002D913C915C9716968D919D910D90BC91F2
:100EA000A02D0297A109B109F901058404C0880F9A
:100EB000991FAA1FBB1F0A94D2F7468557856089E0
:100EC0007189840F951FA61FB71F9C01AD01270DC7
:100ED000311D411D511D29013A01811432E0930653
:100EE00009F088C08091000190910101A091020158
:100EF000B091030184159505A605B70559F48FEF48
:100F00009FEFDC018093000190930101A093020107
:100F1000B09303019501B301A20180916D049091FA
:100F20006E040E94B402882309F482CF9EEFB91A9E
:100F3000C818D908F80182859385A485B585880DE0
:100F4000991DA11DB11D82879387A487B587D801FC
:100F50001A964D915D916D917C911D97C114D104AC
:100F600009F072CF87C0E114F10409F086CF16961C
:100F70004D915D916D917C911997411551056105D8
:100F8000710559F457968D919D910D90BC91A02DAE
:100F90000097A105B10541F521C09E012F5F3F4F8C
:100FA0000E944304882309F44BCF89819A81AB8145
:100FB000BC81F801238D348DF9012789203129F076
:100FC00048EF5FEF6FEF7FE004C048EF5FEF60E056
:100FD00070E084179507A607B70730F0C8010E9494
:100FE000960581114ACF24CFF80186839783A08785
:100FF000B18743CFE114F10429F5D8011A964D9138
:101000005D916D917C911D9753968D919D910D9061
:10101000BC91A02D481759076A077B0798F00E94DA
:101020001F03882309F404CF40920001509201016C
:10103000609202017092030180915A028160809354
:101040005A0208C041E0C301B2010E945A0388233A
:1010500009F4EECED501F701E359FD4FCF01880D1C
:10106000991DE817F90719F02D912193FACFA80CD3
:10107000B91C5ECF53968D919D910D90BC91A02D82
:1010800084179507A607B70740F4F801438B548BE4
:10109000658B768B848180688483D80114968C91CB
:1010A00083FD02C0C1010BC0F8018581882309F4CA
:1010B000BFCEC8010E9499068111F4CFB9CE0F901E
:1010C0000F900F900F90DF91CF911F910F91FF9094
:1010D000EF90DF90CF90BF90AF909F908F907F90D8
:1010E0006F905F904F903F902F900895CF93DF9334
:1010F0001F92CDB7DEB7698341E050E0BE016F5F5C
:101100007F4F0E94E0060F90DF91CF910895CF931B
:10111000DF93EC01898D9A8D009739F481E090E09E
:101120009B838A8380E090E00BC0FC0113821282D3
:101130000E94E006E98DFA8D22813381232B71F71D
:10114000DF91CF9108951F920F920FB60F92112445
:101150002F933F934F935F936F937F938F939F93BF
:10116000AF93BF93EF93FF938091B900887F803650
:1011700009F49CC068F5883209F45BC090F48031B2
:1011800009F454C038F4882309F4F6C0883009F40F
:101190004DC0F6C0883109F44CC0803209F45DC0FE
:1011A000EFC0803409F468C048F4803309F455C0B6
:1011B000883309F0E5C080933102D8C0803509F446
:1011C0004FC0883509F45DC0883409F0D9C0D6C055
:1011D000883909F4C7C0A8F4883709F467C038F41F
:1011E000883609F463C0803709F460C0C9C0883804
:1011F00009F4B8C0803909F45FC0803809F0C0C074
:101200005BC0803B09F486C038F4803A09F466C0BC
:10121000883A09F47FC0B4C0803C09F4A7C0883C78
:1012200009F4A4C0883B09F48AC0AAC0809157027F
:1012300010C09091560280915502981770F5E09178
:10124000560281E08E0F80935602F0E0EB5CFD4F7A
:1012500080818093BB0085EC86C0809331028EC074
:10126000E091560281E08E0F809356028091BB0080
:10127000F0E0EB5CFD4F8083909156028091550227
:101280006EC0E091560281E08E0F809356028091ED
:10129000BB00F0E0EB5CFD4F808380913402811154
:1012A0006DC081E08093330284EA61C083E0809363
:1012B000320210923002CFCF80913002803208F09B
:1012C00051C0E091300281E08E0F80933002809116
:1012D000BB00F0E0E05FFD4F8083BDCF85EC8093E5
:1012E000BC001092320280913002803230F4E091E2
:1012F0003002F0E0E05FFD4F10826091300270E05C
:10130000E0910E02F0910F0280E192E009951092B7
:10131000300236C084E08093320210920D021092A7
:101320000C02E0910A02F0910B02099580910C02E7
:10133000811105C081E080930C021092EA01E091D6
:101340000D0281E08E0F80930D02F0E0E651FE4F1A
:1013500080818093BB0090910D0280910C029817C0
:1013600008F479CF85E88093BC000AC085EC8093AF
:10137000BC001092320204C0109231020E94BE00E2
:10138000FF91EF91BF91AF919F918F917F916F915D
:101390005F914F913F912F910F900FBE0F901F9033
:1013A00018951092320281E0809334021092330239
:1013B00061E082E10E94150B61E083E10E94150B60
:1013C000E9EBF0E080818E7F808380818D7F808358
:1013D00088E48093B80085E48093BC000895FC0104
:1013E000918D828D981761F0828DDF01A80FB11D5C
:1013F0005D968C91928D9F5F9F73928F90E0089580
:101400008FEF9FEF0895FC01918D828D981731F039
:10141000828DE80FF11D858D90E008958FEF9FEF8D
:101420000895FC01918D228D892F90E0805C9F4F63
:10143000821B91098F73992708958FE694E00E948B
:10144000110A21E0892B09F420E0822F0895FC0184
:10145000848DDF01A80FB11DA35ABF4F2C91848D3D
:1014600090E001968F739927848FA689B7892C9372
:10147000A089B1898C9180648C93938D848D98130D
:1014800006C00288F389E02D80818F7D80830895D6
:10149000EF92FF920F931F93CF93DF93EC0181E0C4
:1014A000888F9B8D8C8D981305C0E889F989808180
:1014B00085FD24C0F62E0B8D10E00F5F1F4F0F73BC
:1014C0001127E02E8C8DE8120CC00FB607FCFACF66
:1014D000E889F989808185FFF5CFCE010E94270A2E
:1014E000F1CF8B8DFE01E80FF11DE35AFF4FF08223
:1014F0000B8FEA89FB898081806207C0EE89FF89B2
:101500006083E889F98980818064808381E090E04C
:10151000DF91CF911F910F91FF90EF900895CF939E
:10152000DF93EC01888D8823C9F0EA89FB898081EB
:1015300085FD05C0A889B9898C9186FD0FC00FB6BD
:1015400007FCF5CF808185FFF2CFA889B9898C91FE
:1015500085FFEDCFCE010E94270AE7CFDF91CF9123
:10156000089580E090E0892B29F00E941D0A8111E6
:101570000C94000008950E9430131F920F920FB632
:101580000F9211242F933F934F935F936F937F9309
:101590008F939F93AF93BF93EF93FF938FE694E066
:1015A0000E94270AFF91EF91BF91AF919F918F9178
:1015B0007F916F915F914F913F912F910F900FBE4F
:1015C0000F901F9018951F920F920FB60F92112433
:1015D0002F938F939F93EF93FF93E0917F04F0916C
:1015E00080048081E0918504F091860482FD12C020
:1015F0009081809188048F5F8F7320918904821776
:1016000051F0E0918804F0E0E159FB4F958F809311
:10161000880401C08081FF91EF919F918F912F915C
:101620000F900FBE0F901F90189590E0FC01E859A5
:10163000FF4F3491FC01EC55FF4F2491FC01E05722
:10164000FF4FE491EE2309F43BC0332339F13330EB
:1016500091F038F43130A9F0323001F584B58F7D46
:1016600012C0373091F03830A1F03430B9F48091A5
:1016700080008F7D03C0809180008F7780938000F1
:101680000DC084B58F7784BD09C08091B0008F777D
:1016900003C08091B0008F7D8093B000F0E0EE0F2A
:1016A000FF1FE458FF4FA591B4918FB7F894EC91C8
:1016B000611103C020952E2301C02E2B2C938FBFC8
:1016C0000895CF93DF93EC0160E08E810E94150BAB
:1016D00061E08E810E94150B60E08E810E94150BE7
:1016E0008BE891E00197F1F7DF91CF9108952FB743
:1016F000F894609168027091690280916A029091F9
:101700006B022FBF08951F920F920FB60F921124F4
:101710002F933F938F939F93AF93BF9380916802D2
:1017200090916902A0916A02B0916B0230916702B8
:1017300023E0230F2D3720F40196A11DB11D05C014
:1017400026E8230F0296A11DB11D20936702809306
:10175000680290936902A0936A02B0936B02809131
:10176000630290916402A0916502B09166020196B5
:10177000A11DB11D8093630290936402A093650242
:10178000B0936602BF91AF919F918F913F912F913E
:101790000F900FBE0F901F901895CF92DF92EF928F
:1017A000FF920F931F93CF93DF937C016C0187E02F
:1017B000C80ED11CC0E0D0E0062F10E0B8010C2EFE
:1017C00002C0759567950A94E2F76170F601819100
:1017D0006F010E94150B2196C430D10579F7C7011E
:1017E000DF91CF911F910F91FF90EF90DF90CF90FD
:1017F0000C94610BCF92DF92EF92FF920F931F93A5
:10180000CF93DF93EC01F62E642F8C810E94150B91
:101810008D818F3F19F060E00E94150B8F850F2D91
:1018200010E084FF25C06E0187E0C80ED11CE12CBA
:10183000F12CB8010E2C02C0759567950A94E2F759
:101840006170F60181916F010E94150BFFEFEF1A95
:10185000FF0A88E0E816F10461F7CE01DF91CF912D
:101860001F910F91FF90EF90DF90CF900C94610B40
:10187000B80184E0759567958A95E1F7CE010E94DD
:10188000CD0B6F2DCE01DF91CF911F910F91FF9066
:10189000EF90DF90CF900C94CD0B41E00E94FA0BBB
:1018A00081E090E0089540E00C94FA0B90E0FC0198
:1018B000EC55FF4F2491FC01E057FF4F84918823A2
:1018C00099F090E0880F991FFC01EA57FF4FA5910E
:1018D000B491FC01E458FF4F859194918FB7F8942F
:1018E000EC91E22BEC938FBF0895EF92FF920F9350
:1018F0001F93CF93DF93EC01623018F08F858860DF
:101900008F876B8B1C8A80E48D8B80E18E8B80E5CA
:101910008F8B8C810E94560C8D818F3F11F00E941D
:10192000560C8E810E94560C7E0187E0E80EF11C59
:1019300000E010E08F8584FD03C084E090E002C0E9
:1019400088E090E00817190744F4F70181917F01BE
:101950000E94560C0F5F1F4FEDCF8BE39DE0019768
:10196000F1F760E08C810E94150B60E08E810E948F
:10197000150B8D818F3F19F060E00E94150B6F856C
:1019800064FD1DC063E0CE010E94CD0B0BE416E4A4
:10199000C8010197F1F763E0CE010E94CD0BC801A9
:1019A0000197F1F763E0CE010E94CD0B83E592E051
:1019B0000197F1F762E0CE010E94CD0B16C0606284
:1019C000CE010E94530C8BE496E40197F1F76F85EA
:1019D0006062CE010E94530C83E592E00197F1F71B
:1019E0006F856062CE010E94530C6F856062CE01EC
:1019F0000E94530C84E0888B6CE0CE010E94530C53
:101A000061E0CE010E94530C8BE39FE10197F1F757
:101A100082E0898B66E0CE01DF91CF911F910F911B
:101A2000FF90EF900C94530CEFE6F4E0A089B1899D
:101A300082E08C93A485B5851C92A685B7858FEC32
:101A40008C93108EA489B58986E08C93A289B38982
:101A50008C9180618C93A289B3898C9188608C93DE
:101A6000A289B3898C9180688C930288F389E02DD8
:101A700080818F7D808308958F929F92AF92BF92D5
:101A8000CF92DF92EF92FF92CF93DF93C82F86E53C
:101A900095E090936E0480936D04CC2369F1C5307A
:101AA00010F080E00DC140E060E070E0CB010E94EA
:101AB0005A038823B1F320E1C29FC0011124835A45
:101AC0009D4FFC01E254FE4F20812F7751F73C9649
:101AD00040815181628173814436510561057105F0
:101AE00000F33497C080D180E280F380C114D10428
:101AF000E104F10421F4D5CFC12CD12C760140E0D2
:101B0000C701B6010E945A03882359F280917802D6
:101B1000909179028115924021F6A0917D02AA232D
:101B200009F4BFCF60917B0270917C026115710551
:101B300009F4B7CF20917A02222309F4B2CFA093FF
:101B400074052093660580E030E0E1E0F0E0C82F06
:101B5000AF01082E02C0440F551F0A94E2F7241764
:101B6000350741F0982F8F5F983089F789E080938F
:101B70006F0597CF80936F05209183023091840287
:101B80002115310519F040E050E008C02091910284
:101B900030919202409193025091940220936705F4
:101BA000309368054093690550936A0546015701D3
:101BB000860E971EA11CB11C809275059092760529
:101BC000A0927705B0927805E0917E02F0917F02B5
:101BD000F0937B05E0937A05B0E00E943C13860EFB
:101BE000971EA81EB91E80927C0590927D05A0923A
:101BF0007E05B0927F0585E0EE0FFF1F8A95E1F725
:101C0000E150FE4FEF2FFF27E6958E0E9F1EA11C81
:101C1000B11C8092700590927105A0927205B092ED
:101C2000730520918002309181022115310521F048
:101C3000A90160E070E008C040918D0250918E02D1
:101C400060918F0270919002D701C601881999099D
:101C5000AA09BB09840F951FA61FB71F04C0B6951C
:101C6000A79597958795CA95D2F780936B05909322
:101C70006C05A0936D05B0936E05853F2FE092072C
:101C8000A105B10510F48CE018C0853F9F4FA10558
:101C9000B10510F480E111C08091990290919A02EF
:101CA000A0919B02B0919C0280937C0590937D054E
:101CB000A0937E05B0937F0580E28093790581E053
:101CC000DF91CF91FF90EF90DF90CF90BF90AF90DA
:101CD0009F908F900895CF93DF93EC01662311F0CE
:101CE00082E001C080E0442311F094E001C090E064
:101CF000892B806288838FEF888B898B45E050E049
:101D00006FEF70E0CE0101960E943513269685E0B4
:101D1000FE01982F11929A95E9F7FE0111928A958A
:101D2000E9F7DF91CF9108952F923F924F925F9202
:101D30006F927F928F929F92AF92BF92CF92DF92DB
:101D4000EF92FF920F931F93CF93DF93EC015B0110
:101D50008D81811103C08FEF9FEFC5C08C8180FF03
:101D6000FACF81E04B885C886D887E884A855B85E8
:101D70006C857D85441655066606770609F480E075
:101D800090E03C014E01E6E08E0E911C892B09F497
:101D900072C04A855B856C857D856A0121E0D2220F
:101DA0002D811A012B0189E056944794379427948A
:101DB0008A95D1F78B8D9C8DFC01223059F4828D50
:101DC000938DA48DB58DBC01CD01620D731D841D55
:101DD000951D40C0148111501221C114D104C9F4C1
:101DE000111117C0452B462B472B49F48F89988D2D
:101DF000A98DBA8D8E839F83A887B9870AC04E812B
:101E00005F816885798594010E944304882309F4E1
:101E1000A2CFEB8DFC8D8E819F81A885B98502971D
:101E2000A109B109AC01BD01058404C0440F551FCF
:101E3000661F771F0A94D2F786859785A089B18996
:101E4000840F951FA61FB71FBC01CD01610F711D27
:101E5000811D911D2C8126FF10C000910001109161
:101E6000010120910201309103016017710782077F
:101E7000930731F502C0C30136C040E00E945A0307
:101E8000882309F468CFF601E359FD4FD501CF014E
:101E90000196E817F90719F021912D93FACF2FEF4A
:101EA000A21AB20A8A859B85AC85BD850196A11DC3
:101EB000B11D8A879B87AC87BD8780E090E066CFA5
:101EC000750101E010E09601AB01BC0180916D0449
:101ED00090916E040E942002882309F43CCFFFEF0A
:101EE000AF1ABF0ADFCFDF91CF911F910F91FF9003
:101EF000EF90DF90CF90BF90AF909F908F907F90AA
:101F00006F905F904F903F902F9008950F931F9385
:101F1000CF93DF93EC010E94C50F8C0163E571E064
:101F2000CE010E94C50F800F911FDF91CF911F91AD
:101F30000F910895CF92DF92EF92FF920F931F932C
:101F4000CF93DF936C017A018B01C0E0D0E0CE1516
:101F5000DF0589F0D8016D918D01D601ED91FC91DD
:101F60000190F081E02DC6010995892B11F47E01C5
:101F700002C02196ECCFC701DF91CF911F910F9145
:101F8000FF90EF90DF90CF9008956115710579F083
:101F9000FB0101900020E9F73197AF01461B570B79
:101FA000DC01ED91FC910280F381E02D099480E049
:101FB00090E00895CF93DF9300D000D0CDB7DEB787
:101FC000789484B5826084BD84B5816084BD85B514
:101FD000826085BD85B5816085BD80916E00816020
:101FE00080936E00109281008091810082608093C6
:101FF00081008091810081608093810080918000C8
:102000008160809380008091B10084608093B100F2
:102010008091B00081608093B00080917A008460EC
:1020200080937A0080917A00826080937A00809118
:102030007A00816080937A0080917A008068809332
:102040007A001092C1001092500510925105109222
:1020500052051092530510920E0510920F05109222
:102060001005109211050E94770B6B017C014B014A
:102070005C0188EB880E8BE0981EA11CB11C0E94AD
:10208000770B6C157D058E059F0528F08616970643
:10209000A806B906A0F78FE694E090934F058093C9
:1020A0004E050E94140D0E94770B60930E057093ED
:1020B0000F05809310059093110564E471E0809101
:1020C0004E0590914F050E94C50F0E94770B6B0142
:1020D0007C014B015C018AE0880E911CA11CB11CA3
:1020E0000E94770B6C157D058E059F0528F08616DE
:1020F0009706A806B906A0F781E0809322050E9402
:10210000140D1092620210926102109260021092FD
:102110005F020E94D10940E060E085ED95E00E94F9
:102120006B0E66E571E08FE694E00E94860F41E059
:1021300060E087EE95E00E946B0E69E671E08FE645
:1021400094E00E94860F40E061E083EC95E00E94FD
:102150006B0E6CE771E08FE694E00E94860F41E021
:1021600061E085ED95E00E946B0E6FE871E08FE60F
:1021700094E00E94860F1092620210926102109207
:10218000600210925F020E94D10962EA71E08FE65C
:1021900094E00E94860F1092610510925F051092E4
:1021A0005C0510925B058AE080935A050E94770BCC
:1021B0008B0180915A050E94560C61E080915A056E
:1021C0000E94150BFFB6F89480916C02811124C017
:1021D000EAE9F0E08491EEEAF0E09491E82FF0E093
:1021E000EE0FFF1FEA57FF4FA591B491EC91E92341
:1021F00021F461E08AE00E94150B8AE00E94560CEF
:102200008CB580618CBD8CB580648CBD8DE00E94E6
:10221000560C8BE00E94560C80916C028F5F80936D
:102220006C02FFBE82E580935405109255058091A3
:102230005405909155050E94A5015AE0F52E8FEFA7
:102240000E946601FA94F110FACF86E595E00E94AB
:10225000A80120E030E0A90160E086E595E00E9459
:10226000BE01F82E8093600581E0F81649F00E94C7
:10227000770B601B710B613D774058F381E056C0CE
:102280002AEA31E040E050E068E086E595E00E940F
:10229000BE0182FF03C0F092610510C044E0F42E3D
:1022A0000E946D0180936005FA94F110F9CF8A3A8B
:1022B00011F082E03BC082E080936105809161056E
:1022C000823021F0C12CD12C760105C0C12CD12C3B
:1022D000E12C30E4F32E20E030E0A90167E386E54D
:1022E00095E00E94BE01A701960169E286E595E0AE
:1022F0000E94BE0180936005882349F00E94770BFD
:10230000601B710B613D774030F388E00FC0809116
:102310006105823001F520E030E0A9016AE386E53D
:1023200095E00E94BE01882341F086E080935B0522
:1023300086E595E00E945B01E8C00E946D01807C0B
:10234000803C19F483E0809361050E946D010E9436
:102350006D010E946D0186E595E00E945B0180E5BC
:10236000809354051092550581E00E943C0D88230E
:1023700029F080918505882341F0C7C080E00E9444
:102380003C0D882309F4C1C0F4CF809179058031D8
:1023900009F582E0809385051092970510929805C3
:1023A0001092990510929A0580917A0590917B057B
:1023B000A0E0B0E025E0880F991FAA1FBB1F2A9557
:1023C000D1F78093930590939405A0939505B093CE
:1023D00096055DC0803209F098C083E08093850542
:1023E00080917C0590917D05A0917E05B0917F053F
:1023F0008093970590939805A0939905B0939A05BB
:1024000089839A83AB83BC83C12CD12C7601812C28
:1024100082E0982EA12CB12C49815A816B817C815C
:102420009E012F5F3F4F82E695E00E944304882380
:1024300009F46BC0D501C40100906F0504C0880F7A
:10244000991FAA1FBB1F0A94D2F7C80ED91EEA1EF5
:10245000FB1E49815A816B817C8180917905803195
:1024600029F088EF9FEFAFEFBFE004C088EF9FEF48
:10247000A0E0B0E0481759076A077B0768F2C092EE
:102480009305D0929405E0929505F092960582E628
:1024900095E090939C0580939B0581E08093840553
:1024A0001092860510928705109288051092890572
:1024B00010928A0510928B0510928C0510928D0552
:1024C00010928E0510928F05109290051092910532
:1024D0001092920561EB71E08FE694E00E94860F06
:1024E00062E08BEA95E00E94750C61E08BEA95E072
:1024F0000E94530C8BE39FE10197F1F766EC71E0CA
:102500008BEA95E00E94860FFFCF63ED71E08FE6C6
:1025100094E00E94860FF8CFEFE6F4E01382128277
:1025200048EE53E060E070E0448355836683778330
:1025300088E091E09183808385EC90E095878487A3
:1025400084EC90E09787868780EC90E0918B808B7D
:1025500081EC90E0938B828B82EC90E0958B848B66
:1025600086EC90E0978B868B118E128E138E148ED4
:10257000ECE0F5E01682178210861186128613862B
:102580001486158616861786108A118A128A138A6F
:10259000148A158AE4E5F5E080E580831182E6E59A
:1025A000F5E0158216821186138682E090E0A0E0A5
:1025B000B0E084879587A687B78713A215A614A6CF
:1025C00088E191E093A782A717A6EFE9F5E01382CF
:1025D0001282448355836683778380E291E09183FE
:1025E0008083E5EDF5E010828FEF808B818BE3EC4B
:1025F000F5E01082808B818BE7EEF5E0138212828A
:10260000448355836683778388E391E09183808355
:10261000128E118E1486EBEAF5E01382128280E3AB
:1026200091E09183808388E084838DE0858389E0D5
:10263000868384E0878385E0808786E0818787E0E2
:1026400082871386148615861686178661E0CF0169
:102650000C94750CEE0FFF1F0590F491E02D09947A
:1026600081E090E0F8940C945613DC0101C06D9366
:1026700041505040E0F708950E944713A59F900DE8
:10268000B49F900DA49F800D911D11240895A29FC9
:10269000B001B39FC001A39F700D811D1124911D36
:1026A000B29F700D811D1124911D0895F894FFCFE4
:1026B000FFFFFFFF00000000480A9A0F110AEF0910
:1026C000030A8F0A0000000076089A0F000000003D
:1026D0002A0116010E01FF00F100F00000000000C9
:1026E0004D0C9A0F00000000A800870887003B01EE
:1026F0005D05D506564D4450565F317C315F564DD1
:102700004450560D0A0053657475702058312049A5
:102710004F426F61726420310053657475702058A8
:102720003120494F426F61726420320053657475E5
:102730007020583220494F426F617264203100533B
:102740006574757020583220494F426F6172642061
:10275000320052544320436F6E6E65637465642E7D
:10276000005344204361726420696E697469616C2E
:10277000697A65642E004361626C652074657374C8
:10278000657200696E697469616C697A6174696FF8
:0A2790006E206661696C656421002B
:107E0000112484B714BE81FFF0D085E080938100F7
:107E100082E08093C00088E18093C10086E0809377
:107E2000C20080E18093C4008EE0C9D0259A86E02C
:107E300020E33CEF91E0309385002093840096BBD3
:107E4000B09BFECF1D9AA8958150A9F7CC24DD24C4
:107E500088248394B5E0AB2EA1E19A2EF3E0BF2EE7
:107E6000A2D0813461F49FD0082FAFD0023811F036
:107E7000013811F484E001C083E08DD089C08234E0
:107E800011F484E103C0853419F485E0A6D080C0E4
:107E9000853579F488D0E82EFF2485D0082F10E0AE
:107EA000102F00270E291F29000F111F8ED06801E7
:107EB0006FC0863521F484E090D080E0DECF843638
:107EC00009F040C070D06FD0082F6DD080E0C81688
:107ED00080E7D80618F4F601B7BEE895C0E0D1E017
:107EE00062D089930C17E1F7F0E0CF16F0E7DF06D8
:107EF00018F0F601B7BEE89568D007B600FCFDCFD4
:107F0000A601A0E0B1E02C9130E011968C91119780
:107F100090E0982F8827822B932B1296FA010C0160
:107F200087BEE89511244E5F5F4FF1E0A038BF0790
:107F300051F7F601A7BEE89507B600FCFDCF97BE46
:107F4000E89526C08437B1F42ED02DD0F82E2BD052
:107F50003CD0F601EF2C8F010F5F1F4F84911BD097
:107F6000EA94F801C1F70894C11CD11CFA94CF0C13
:107F7000D11C0EC0853739F428D08EE10CD085E9AC
:107F80000AD08FE07ACF813511F488E018D01DD067
:107F900080E101D065CF982F8091C00085FFFCCF94
:107FA0009093C60008958091C00087FFFCCF809118
:107FB000C00084FD01C0A8958091C6000895E0E648
:107FC000F0E098E1908380830895EDDF803219F02E
:107FD00088E0F5DFFFCF84E1DECF1F93182FE3DFCA
:107FE0001150E9F7F2DF1F91089580E0E8DFEE27F6
:047FF000FF270994CA
:027FFE00040479
:0400000300007E007B
:00000001FF