:100000000C945D000C9485000C9485000C94850084
:100010000C9485000C9485000C9485000C9485004C
:100020000C9485000C9485000C9485000C9485003C
:100030000C9485000C9485000C9485000C9485002C
:100040000C94AD010C9485000C94850B0C945F0B03
:100050000C9485000C9485000C9485000C9485000C
:100060000C9445090C948500000000080002010072
:100070000003040700000000000000000000000072
:10008000250028002B0000000000240027002A0083
:10009000040404040404040402020202020203032E
:1000A0000303030301020408102040800102040836
:1000B00010200102040810202B1111241FBECFEFC5
:1000C000D8E0DEBFCDBF11E0A0E0B1E0E2EBF3E2AB
:1000D00002C005900D92A63DB107D9F725E0A6ED27
:1000E000B1E001C01D92A63DB207E1F710E0CDE5F9
:1000F000D0E004C02197FE010E94AB11CC35D1079E
:10010000C9F70E949B0E0C94D7110C940000DC01DF
:100110005996ED91FC915A973097B9F0838994895B
:10012000A589B6894285538564857585841B950BA1
:10013000A60BB70B811520E89207A105B10538F091
:100140008FEF9FE7A0E0B0E0089580E090E0089591
:10015000CF93DF931F92CDB7DEB76983DC01ED91BA
:10016000FC910280F381E02D41E050E0BE016F5F21
:100170007F4F09950F90DF91CF91089585ED809382
:10018000BC008091BC0084FDFCCF10921E0208953B
:100190004091F801262F30E0240F311D2132310526
:1001A000DCF420911E022430C9F4FC0180E090E0D0
:1001B000861758F43091F8012191DC01AA52BE4F04
:1001C000A30FB11D2C930196F3CF8091F801680F16
:1001D0006093F80180E0089581E0089582E0089539
:1001E000089581E090E03091570220915602321735
:1001F00010F480E090E091958195910908958091A7
:10020000570290915602891730F48F5F80935702FE
:1002100080E090E008958FEF9FEF0895809156025F
:1002200090E020915702821B91090895CF93DF93AC
:1002300000D0CDB7DEB7CB01642F49835A830E942B
:10024000C8004981842F5A81952F0F900F90DF911C
:10025000CF910895CF93DF931F92CDB7DEB7698317
:1002600061E0CE0101960E94C80081E090E00F900D
:10027000DF91CF910895CF93DF931F92CDB7DEB773
:10028000FC01818D928D009751F0BE016F5F7F4F11
:100290000E94810D019719F4898190E002C08FEFCF
:1002A0009FEF0F90DF91CF91089590E0FC01E85906
:1002B000FF4F3491FC01EC55FF4F2491FC01E057B6
:1002C000FF4FE491EE2309F43BC0332339F133307F
:1002D00091F038F43130A9F0323001F584B58F7DDA
:1002E00012C0373091F03830A1F03430B9F4809139
:1002F00080008F7D03C0809180008F778093800085
:100300000DC084B58F7784BD09C08091B0008F7710
:1003100003C08091B0008F7D8093B000F0E0EE0FBD
:10032000FF1FE458FF4FA591B4918FB7F894EC915B
:10033000611103C020952E2301C02E2B2C938FBF5B
:1003400008952FB7F89460915002709151028091F6
:100350005202909153022FBF08951F920F920FB631
:100360000F9211242F933F938F939F93AF93BF933B
:100370008091500290915102A0915202B09153028B
:1003800030914F0223E0230F2D3720F40196A11D59
:10039000B11D05C026E8230F0296A11DB11D2093B3
:1003A0004F028093500290935102A0935202B09357
:1003B000530280914B0290914C02A0914D02B0915A
:1003C0004E020196A11DB11D80934B0290934C02E9
:1003D000A0934D02B0934E02BF91AF919F918F9128
:1003E0003F912F910F900FBE0F901F9018958FB7D0
:1003F000F894809145028FBF089561E0FC018481EB
:100400000E94550180914402811110924402089586
:100410008EBD00000DB407FEFDCF8EB508958FEFA1
:100420000C9408020F931F93CF93DF93EB010E946C
:10043000A1018B010E940F028F3F49F00E94A10190
:10044000601B710B6C177D07A8F380E001C081E091
:10045000DF91CF911F910F910895CF93DF93EC011E
:100460008E81882389F08F8198859C012F5F3F4F73
:1004700038872F838230924018F40E940F02F3CF06
:10048000CE010E94FD011E82DF91CF9108958CBDA7
:100490009DBD0895CF93DF93EC01809144028111BB
:1004A00009C081E08093440280914005909141050C
:1004B0000E94470260E08C81DF91CF910C9455013E
:1004C000CF92DF92FF920F931F93CF93DF9300D0D1
:1004D00000D0CDB7DEB76C01F62E29833A834B836B
:1004E0005C830E942D02C6010E944A026CE271E008
:1004F000C6010E9412028F2D80640E94080208E14A
:1005000010E05C814B813A812981DA01C901002E1A
:1005100004C0B695A795979587950A94D2F7298335
:100520003A834B835C830E94080208501109298199
:100530003A814B815C81083F8FEF180731F7FF202C
:1005400029F0E8E0FE1204C087E803C085E901C095
:100550008FEF0E94080210E00E940F02F6018287CE
:1005600087FF04C01F3F11F01F5FF6CF0F900F9061
:100570000F900F90DF91CF911F910F91FF90DF901F
:10058000CF900895AF92BF92CF92DF92EF92FF92F9
:100590000F931F93CF93DF93EC016901C801820F82
:1005A000931F8130924008F070C08E81882371F0D3
:1005B00088819981AA81BB81481759076A077B07FF
:1005C00029F48F819885C816D906B0F548835983D8
:1005D0006A837B838B85833039F089E0440F551F14
:1005E000661F771F8A95D1F79A01AB0161E1CE01B1
:1005F0000E946002882319F083E08D8346C00E9428
:10060000A1015B010E940F028A878F3F49F40E947B
:10061000A1016A197B096D327140A0F38FE003C01C
:100620008E3F31F08DE08D83CE010E94FD012DC003
:1006300018861F8281E08E838F8198858C159D0599
:1006400040F40E940F028F819885019698878F83CE
:10065000F3CF6701E00EF11ECE14DF0431F00E94EB
:100660000F02F60181936F01F7CF8F819885080FF4
:10067000191F18870F838985882319F001151240E7
:1006800048F0CE010E942D0205C0CE010E94FD015E
:1006900080E001C081E0DF91CF911F910F91FF9029
:1006A000EF90DF90CF90BF90AF900895EF92FF92C0
:1006B0000F931F93CF93DF93EC01790141155105FF
:1006C0006105710511F482E13CC08B85833039F0FE
:1006D00089E0440F551F661F771F8A95D1F79A014D
:1006E000AB0168E1CE010E946002882311F084E032
:1006F00028C08EEF0E94080287018EEFF81AF801D9
:1007000081918F010E9408020E151F05C1F78FEF1E
:100710000E9408028FEF0E9408020E940F028A873F
:100720008F71853031F081E18D83CE010E94FD0112
:1007300009C068E572E0CE010E941202811107C073
:1007400085E18D83CE010E94FD0180E013C020E091
:1007500030E0A9016DE0CE010E946002811104C069
:100760000E940F02882311F084E1EBCFCE010E949A
:10077000FD0181E0DF91CF911F910F91FF90EF90EC
:100780000895809146028823A9F14091000150917B
:100790000101609102017091030129E532E080912D
:1007A000590490915A040E945603811102C080E0BE
:1007B000089540914702509148026091490270911A
:1007C0004A02411551056105710591F029E532E0B4
:1007D0008091590490915A040E945603882339F35A
:1007E00010924702109248021092490210924A0257
:1007F0001092460281E008958F929F92AF92BF922D
:10080000EF92FF920F931F93CF934B015C01C42F84
:100810008091000190910101A0910201B09103012A
:1008200088159905AA05BB0501F10E94C103811134
:1008300002C080E020C089E5E82E82E0F82E00E0CA
:1008400012E020E030E0B501A401809159049091BC
:100850005A040E94C202882361F3809200019092A0
:100860000101A0920201B092030180914602C82BBF
:10087000C093460281E0CF911F910F91FF90EF90BE
:10088000BF90AF909F908F9008954F925F926F921C
:100890007F928F929F92AF92BF92CF92DF92EF9210
:1008A000FF920F931F93CF93DF93EC016A017B01BB
:1008B00028013901423051056105710510F480E0CD
:1008C00073C089859A85AB85BC850196A11DB11D34
:1008D00084179507A607B70790F38B889C88AD8887
:1008E000BE888F89803129F4BB27AF2D9E2D8D2D99
:1008F00009C0DB01CA0147E0B695A7959795879592
:100900004A95D1F7880E991EAA1EBB1E8091000140
:1009100090910101A0910201B091030188169906FE
:10092000AA06BB0679F48F898031A1F4DD24EE2478
:10093000FF24C601880F991FFC01E75AFD4F518221
:10094000408219C040E0C501B4010E94FC0381113E
:10095000EACFB5CFE894C7F8DD24EE24FF24C60122
:10096000880F991F880F991FFC01E75AFD4F40829D
:100970005182628273828091460281608093460236
:100980008A89823080F08D819E81AF81B885880E02
:10099000991EAA1EBB1E8092470290924802A09206
:1009A0004902B0924A0281E0DF91CF911F910F91ED
:1009B000FF90EF90DF90CF90BF90AF909F908F907F
:1009C0007F906F905F904F9008958F929F92AF921B
:1009D000BF92CF92DF92EF92FF920F931F93CF932C
:1009E000DF93FC0181859285A385B4850196A11DC5
:1009F000B11D84179507A607B70710F480E05CC007
:100A000083899489A589B689C789C03129F4852E3F
:100A1000962EA72EBB2409C04A015B01C7E0B694FD
:100A2000A79497948794CA95D1F7E9016A017B014D
:100A30008F01BC01CD01680D791D8A1D9B1D809021
:100A4000000190900101A0900201B090030168158F
:100A500079058A059B0599F4F80187898031A9F405
:100A6000B701A601552766277727440F551FFA01BE
:100A7000E75AFD4F80819181A0E0B0E018C040E0CE
:100A80000E94FC038111E8CFB9CFB701A6014F77CF
:100A9000552766277727440F551F440F551FFA0126
:100AA000E75AFD4F80819181A281B381BF70888315
:100AB0009983AA83BB8381E0DF91CF911F910F912E
:100AC000FF90EF90DF90CF90BF90AF909F908F906E
:100AD00008958F929F92AF92BF92CF92DF92EF9242
:100AE000FF920F931F93CF93DF93EC018D818111C0
:100AF00002C080E077C00B891C892D893E890417CC
:100B0000150726073707A8F36A017B01823029F40D
:100B1000CA86DB86EC86FD860DC0C114D104E104D3
:100B2000F10451F41E821F82188619861A861B86CC
:100B30001C861D8681E056C08A849B84AC84BD845B
:100B4000EB8DFC8D258530E0275F3F4FB501A4017B
:100B50004150510961097109022E04C076956795CB
:100B6000579547950A94D2F7D701C6010197A10975
:100B7000B10904C0B695A795979587952A95D2F7A0
:100B800084179507A607B70720F089288A288B289D
:100B900049F44F89588D698D7A8D4E835F836887BC
:100BA000798704C0841B950BA60BB70B4C015D0124
:100BB0008E010A5F1F4F81149104A104B10409F44E
:100BC000A7CF4E815F816885798598018B8D9C8D3B
:100BD0000E94E50491E0891A9108A108B1088111E9
:100BE000EACF87CFDF91CF911F910F91FF90EF90C8
:100BF000DF90CF90BF90AF909F908F900895EF922D
:100C0000FF920F931F93CF93DF931F92CDB7DEB761
:100C1000FC01818D928D009701F17F01BE016F5F14
:100C20007F4F0E94810D019719F4098110E002C0E5
:100C30000FEF1FEF0F3F8FEF180789F0F701818D3E
:100C4000928DFC014285538564857585415051091B
:100C5000610971090E94690502C000E010E0C80145
:100C60000F90DF91CF911F910F91FF90EF9008951A
:100C70003F924F925F926F927F928F929F92AF922C
:100C8000BF92CF92DF92EF92FF920F931F93CF9379
:100C9000DF93CDB7DEB72C970FB6F894DEBF0FBE4B
:100CA000CDBF5C01DC015B968D909C905C971696A5
:100CB000CD90DD90ED90FC901997C114D104E10422
:100CC000F10439F0BFEFCB1ADB0AEB0AFB0A312C37
:100CD00007C0F401C080D180E280F38033243394D4
:100CE000F40181859285A385B4859C01AD012F5FB8
:100CF0003F4F4F4F5F4F29873A874B875C872601CD
:100D000037011D821E821F821886F401818592851B
:100D1000A385B4852D813E814F81588528173907D9
:100D20004A075B0708F063C089859A85AB85BC8557
:100D30008C159D05AE05BF0550F482E0C82ED12C60
:100D4000E12CF12C92E0492E512C612C712C9E014A
:100D50002F5F3F4FB701A601C4010E94E50488231D
:100D600009F445C089819A81AB81BC81892B8A2B8A
:100D70008B2B41F0260137019FEF491A590A690A66
:100D8000790A05C0C414D504E604F70491F02D8156
:100D90003E814F8158852F5F3F4F4F4F5F4F2D83CF
:100DA0003E834F8358873FEFC31AD30AE30AF30AFF
:100DB000ACCF0FEF1FEF2FEF3FE0B301A201C40153
:100DC0000E944504882399F0D50116964D915D91B6
:100DD0006D917C911997411551056105710549F097
:100DE00093018201C4010E944504811102C080E088
:100DF0002AC0D50116964D925D926D927C921997FC
:100E0000332051F0D301C2010196A11DB11DF4019F
:100E100080839183A283B383F5018789908DA18D0F
:100E2000B28D892B8A2B8B2B69F4D50157964D9265
:100E30005D926D927C925A9714968C91149780686B
:100E400014968C9381E02C960FB6F894DEBF0FBEFB
:100E5000CDBFDF91CF911F910F91FF90EF90DF9069
:100E6000CF90BF90AF909F908F907F906F905F904A
:100E70004F903F900895CF93DF93FC01248127FF8B
:100E80002EC0EC01668577858089918941E00E94BA
:100E9000FC03882341F1EA8980E2E89FF0011124F4
:100EA000DF01A75ABD4F1097F1F08D81823050F4C9
:100EB0004B895C896D897E895C964D935D936D93BA
:100EC0007C935F978F89988DA98DBA8DE75AFD4FD6
:100ED000938F828FB58BA48B8C818F778C83DF91DE
:100EE000CF910C94C10380E0DF91CF910895FC0174
:100EF000818D928D009729F0FC01258121110C94A0
:100F00003B0708952F923F924F925F926F927F928C
:100F10008F929F92AF92BF92CF92DF92EF92FF9209
:100F20000F931F93CF93DF9300D000D0CDB7DEB7E0
:100F30008C015B011A01DC0115968C9115978130AB
:100F4000C9F414968C9181FF15C082FF1DC0F80171
:100F5000438954896589768982859385A485B58579
:100F600084179507A607B70779F0C8010E9469059D
:100F700081110AC081E090E0D80113969C938E9372
:100F8000129780E090E03DC1610183C0D8015B967B
:100F90008D919C915C97FC01248121502A013B0199
:100FA00039E076946794579447943A95D1F7722E26
:100FB00074207A01F1E0FF22772009F476C080E006
:100FC00092E08E199F0946018C159D0508F44C018D
:100FD000D8015B962D913C915C9716968D919D91D1
:100FE0000D90BC91A02D0297A109B109F9010584CA
:100FF00004C0880F991FAA1FBB1F0A94D2F7468509
:10100000578560897189840F951FA61FB71F9C01A2
:10101000AD01270D311D411D511D29013A018114DA
:1010200032E0930609F088C080910001909101019F
:10103000A0910201B091030184159505A605B7059D
:1010400059F48FEF9FEFDC01809300019093010131
:10105000A0930201B09303019501B301A201809115
:10106000590490915A040E945603882309F482CFB0
:101070009EEFB91AC818D908F80182859385A4850E
:10108000B585880D991DA11DB11D82879387A48701
:10109000B587D8011A964D915D916D917C911D9700
:1010A000C114D10409F072CF87C0E114F10409F032
:1010B00086CF16964D915D916D917C911997411552
:1010C00051056105710559F457968D919D910D90CB
:1010D000BC91A02D0097A105B10541F521C09E014D
:1010E0002F5F3F4F0E94E504882309F44BCF89818D
:1010F0009A81AB81BC81F801238D348DF901278958
:10110000203129F048EF5FEF6FEF7FE004C048EF38
:101110005FEF60E070E084179507A607B70730F02F
:10112000C8010E94380681114ACF24CFF801868376
:101130009783A087B18743CFE114F10429F5D80143
:101140001A964D915D916D917C911D9753968D915D
:101150009D910D90BC91A02D481759076A077B07F8
:1011600098F00E94C103882309F404CF4092000143
:101170005092010160920201709203018091460237
:1011800081608093460208C041E0C301B2010E9421
:10119000FC03882309F4EECED501F701E75AFD4F91
:1011A000CF01880D991DE817F90719F02D912193AA
:1011B000FACFA80CB91C5ECF53968D919D910D90DE
:1011C000BC91A02D84179507A607B70740F4F80136
:1011D000438B548B658B768B848180688483D801A4
:1011E00014968C9183FD02C0C1010BC0F80185816A
:1011F000882309F4BFCEC8010E943B078111F4CFB8
:10120000B9CE0F900F900F900F90DF91CF911F915B
:101210000F91FF90EF90DF90CF90BF90AF909F9095
:101220008F907F906F905F904F903F902F90089598
:10123000CF93DF931F92CDB7DEB7698341E050E0D3
:10124000BE016F5F7F4F0E9482070F90DF91CF91A9
:101250000895CF93DF93EC01898D9A8D009739F42F
:1012600081E090E09B838A8380E090E00BC0FC01EA
:10127000138212820E948207E98DFA8D22813381C6
:10128000232B71F7DF91CF9108951F920F920FB624
:101290000F9211242F933F934F935F936F937F93FC
:1012A0008F939F93AF93BF93EF93FF938091B90078
:1012B000887F803609F49CC068F5883209F45BC0E9
:1012C00090F4803109F454C038F4882309F4F6C04E
:1012D000883009F44DC0F6C0883109F44CC0803222
:1012E00009F45DC0EFC0803409F468C048F480336D
:1012F00009F455C0883309F0E5C080931D02D8C0B9
:10130000803509F44FC0883509F45DC0883409F090
:10131000D9C0D6C0883909F4C7C0A8F4883709F401
:1013200067C038F4883609F463C0803709F460C0B8
:10133000C9C0883809F4B8C0803909F45FC0803862
:1013400009F0C0C05BC0803B09F486C038F4803A25
:1013500009F466C0883A09F47FC0B4C0803C09F43F
:10136000A7C0883C09F4A4C0883B09F48AC0AAC07D
:101370008091430210C090914202809141029817DF
:1013800070F5E091420281E08E0F80934202F0E01E
:10139000EF5DFD4F80818093BB0085EC86C080931C
:1013A0001D028EC0E091420281E08E0F80934202C6
:1013B0008091BB00F0E0EF5DFD4F80839091420291
:1013C000809141026EC0E091420281E08E0F8093D5
:1013D00042028091BB00F0E0EF5DFD4F8083809181
:1013E000200281116DC081E080931F0284EA61C0F8
:1013F00083E080931E0210921C02CFCF80911C02CA
:10140000803208F051C0E0911C0281E08E0F809381
:101410001C028091BB00F0E0E450FE4F8083BDCF02
:1014200085EC8093BC0010921E0280911C028032D9
:1014300030F4E0911C02F0E0E450FE4F1082609125
:101440001C0270E0E091FA01F091FB018CEF91E059
:10145000099510921C0236C084E080931E021092FF
:10146000F9011092F801E091F601F091F701099568
:101470008091F801811105C081E08093F8011092FC
:10148000D601E091F90181E08E0F8093F901F0E03F
:10149000EA52FE4F80818093BB009091F9018091C8
:1014A000F801981708F479CF85E88093BC000AC04A
:1014B00085EC8093BC0010921E0204C010921D02A5
:1014C0000E94BE00FF91EF91BF91AF919F918F91CC
:1014D0007F916F915F914F913F912F910F900FBE30
:1014E0000F901F90189510921E0281E080932002A9
:1014F00010921F0261E082E10E94550161E083E1E8
:101500000E945501E9EBF0E080818E7F808380812D
:101510008D7F808388E48093B80085E48093BC004D
:101520000895FC01918D828D981761F0828DDF0105
:10153000A80FB11D5D968C91928D9F5F9F73928FC6
:1015400090E008958FEF9FEF0895FC01918D828DBB
:10155000981731F0828DE80FF11D858D90E0089588
:101560008FEF9FEF0895FC01918D228D892F90E0E0
:10157000805C9F4F821B91098F73992708958BE59B
:1015800094E00E94B30A21E0892B09F420E0822F25
:101590000895FC01848DDF01A80FB11DA35ABF4F30
:1015A0002C91848D90E001968F739927848FA68962
:1015B000B7892C93A089B1898C9180648C93938D89
:1015C000848D981306C00288F389E02D80818F7D79
:1015D00080830895EF92FF920F931F93CF93DF9331
:1015E000EC0181E0888F9B8D8C8D981305C0E88974
:1015F000F989808185FD24C0F62E0B8D10E00F5FE8
:101600001F4F0F731127E02E8C8DE8120CC00FB600
:1016100007FCFACFE889F989808185FFF5CFCE01F3
:101620000E94C90AF1CF8B8DFE01E80FF11DE35A2C
:10163000FF4FF0820B8FEA89FB898081806207C0AF
:10164000EE89FF896083E889F989808180648083DD
:1016500081E090E0DF91CF911F910F91FF90EF908B
:101660000895CF93DF93EC01888D8823C9F0EA8930
:10167000FB89808185FD05C0A889B9898C9186FD8B
:101680000FC00FB607FCF5CF808185FFF2CFA88988
:10169000B9898C9185FFEDCFCE010E94C90AE7CFB1
:1016A000DF91CF91089580E090E0892B29F00E948E
:1016B000BF0A81110C94000008950E94B1111F927D
:1016C0000F920FB60F9211242F933F934F935F9376
:1016D0006F937F938F939F93AF93BF93EF93FF93FA
:1016E0008BE594E00E94C90AFF91EF91BF91AF9101
:1016F0009F918F917F916F915F914F913F912F912A
:101700000F900FBE0F901F9018951F920F920FB65B
:101710000F9211242F938F939F93EF93FF93E09158
:101720006B04F0916C048081E0917104F09172047B
:1017300082FD12C09081809174048F5F8F7320911D
:101740007504821751F0E0917404F0E0E55AFB4F04
:10175000958F8093740401C08081FF91EF919F91D8
:101760008F912F910F900FBE0F901F901895CF92D1
:10177000DF92EF92FF920F931F93CF93DF936C0151
:101780007A018B01C0E0D0E0CE15DF0589F0D801E9
:101790006D918D01D601ED91FC910190F081E02DCC
:1017A000C6010995892B11F47E0102C02196ECCF68
:1017B000C701DF91CF911F910F91FF90EF90DF90C4
:1017C000CF900895EBE5F4E0A089B18982E08C9395
:1017D000A485B5851C92A685B7858FEC8C93108E59
:1017E000A489B58986E08C93A289B3898C918061A4
:1017F0008C93A289B3898C9188608C93A289B389D8
:101800008C9180688C930288F389E02D80818F7D94
:10181000808308958F929F92AF92BF92CF92DF9272
:10182000EF92FF92CF93DF93C82F82E495E09093DD
:101830005A0480935904CC2369F1C53010F080E03C
:101840000DC140E060E070E0CB010E94FC03882302
:10185000B1F320E1C29FC0011124875B9D4FFC01C1
:10186000E254FE4F20812F7751F73C964081518101
:1018700062817381443651056105710500F3349727
:10188000C080D180E280F380C114D104E104F1046E
:1018900021F4D5CFC12CD12C760140E0C701B6018F
:1018A0000E94FC03882359F28091640290916502A2
:1018B0008115924021F6A0916902AA2309F4BFCFB5
:1018C00060916702709168026115710509F4B7CFE4
:1018D00020916602222309F4B2CFA09360052093E1
:1018E000520580E030E0E1E0F0E0C82FAF01082EC3
:1018F00002C0440F551F0A94E2F72417350741F040
:10190000982F8F5F983089F789E080935B0597CF98
:1019100080935B0520916F02309170022115310593
:1019200019F040E050E008C020917D0230917E0225
:1019300040917F02509180022093530530935405CB
:10194000409355055093560546015701860E971E44
:10195000A11CB11C8092610590926205A092630562
:10196000B0926405E0916A02F0916B02F093670512
:10197000E0936605B0E00E94BD11860E971EA81E7A
:10198000B91E8092680590926905A0926A05B0928E
:101990006B0585E0EE0FFF1F8A95E1F7E150FE4FE2
:1019A000EF2FFF27E6958E0E9F1EA11CB11C809283
:1019B0005C0590925D05A0925E05B0925F05209156
:1019C0006C0230916D022115310521F0A90160E012
:1019D00070E008C04091790250917A0260917B02D8
:1019E00070917C02D701C60188199909AA09BB091F
:1019F000840F951FA61FB71F04C0B695A79597958E
:101A00008795CA95D2F78093570590935805A09370
:101A10005905B0935A05853F2FE09207A105B105FE
:101A200010F48CE018C0853F9F4FA105B10510F45C
:101A300080E111C08091850290918602A091870279
:101A4000B09188028093680590936905A0936A0518
:101A5000B0936B0580E28093650581E0DF91CF91C3
:101A6000FF90EF90DF90CF90BF90AF909F908F90BE
:101A7000089590E0FC01EC55FF4F2491FC01E057E4
:101A8000FF4F8491882399F090E0880F991FFC0103
:101A9000EA57FF4FA591B491FC01E458FF4F85919F
:101AA00094918FB7F894EC91E22BEC938FBF08954B
:101AB000CF93DF93EC01662311F082E001C080E058
:101AC000442311F094E001C090E0892B8062888368
:101AD0008FEF888B898B45E050E06FEF70E0CE018F
:101AE00001960E94B611269685E0FE01982F11926C
:101AF0009A95E9F7FE0111928A95E9F7DF91CF9166
:101B000008952F923F924F925F926F927F928F92A1
:101B10009F92AF92BF92CF92DF92EF92FF920F937C
:101B20001F93CF93DF93EC015B018D81811103C083
:101B30008FEF9FEFC5C08C8180FFFACF81E04B888B
:101B40005C886D887E884A855B856C857D854416BA
:101B500055066606770609F480E090E03C014E01E8
:101B6000E6E08E0E911C892B09F472C04A855B85D4
:101B70006C857D856A0121E0D2222D811A012B011D
:101B800089E056944794379427948A95D1F78B8DA2
:101B90009C8DFC01223059F4828D938DA48DB58DDE
:101BA000BC01CD01620D731D841D951D40C01481C3
:101BB00011501221C114D104C9F4111117C0452BC1
:101BC000462B472B49F48F89988DA98DBA8D8E832A
:101BD0009F83A887B9870AC04E815F816885798510
:101BE00094010E94E504882309F4A2CFEB8DFC8DBB
:101BF0008E819F81A885B9850297A109B109AC01A1
:101C0000BD01058404C0440F551F661F771F0A9449
:101C1000D2F786859785A089B189840F951FA61F65
:101C2000B71FBC01CD01610F711D811D911D2C815C
:101C300026FF10C0009100011091010120910201C6
:101C400030910301601771078207930731F502C0D5
:101C5000C30136C040E00E94FC03882309F468CF2A
:101C6000F601E75AFD4FD501CF010196E817F907B4
:101C700019F021912D93FACF2FEFA21AB20A8A857B
:101C80009B85AC85BD850196A11DB11D8A879B876B
:101C9000AC87BD8780E090E066CF750101E010E081
:101CA0009601AB01BC018091590490915A040E94A5
:101CB000C202882309F43CCFFFEFAF1ABF0ADFCF7F
:101CC000DF91CF911F910F91FF90EF90DF90CF9018
:101CD000BF90AF909F908F907F906F905F904F904C
:101CE0003F902F9008956115710579F0FB010190E7
:101CF0000020E9F73197AF01461B570BDC01ED914E
:101D0000FC910280F381E02D099480E090E0089539
:101D1000CF93DF93BC018BE594E00E94730EEC013E
:101D20006BE471E08BE594E00E94730E8C0F9D1FB5
:101D3000DF91CF910895CF93DF9300D000D0CDB73E
:101D4000DEB7789484B5826084BD84B5816084BD3B
:101D500085B5826085BD85B5816085BD80916E0049
:101D6000816080936E00109281008091810082607A
:101D700080938100809181008160809381008091B7
:101D800080008160809380008091B10084608093A6
:101D9000B1008091B00081608093B00080917A00A2
:101DA000846080937A0080917A00826080937A00C8
:101DB00080917A00816080937A0080917A008068B7
:101DC00080937A001092C10010923C0510923D055C
:101DD00010923E0510923F051092FA041092FB04F7
:101DE0001092FC041092FD040E94A1016B017C0181
:101DF0004B015C0188EB880E8BE0981EA11CB11C86
:101E00000E94A1016C157D058E059F0528F08616A0
:101E10009706A806B906A0F78BE594E090933B05DA
:101E200080933A050E94E20B0E94A1016093FA049C
:101E30007093FB048093FC049093FD046CE371E0C9
:101E400080913A0590913B050E94730E0E94A1017A
:101E50006B017C014B015C018AE0880E911CA11C86
:101E6000B11C0E94A1016C157D058E059F0528F00F
:101E700086169706A806B906A0F781E080930E059E
:101E80000E94E20B109257021092560210925502D5
:101E9000109254020E94730A40E060E089EA95E0E3
:101EA0000E94580D8EE491E00E94880E41E060E0AF
:101EB0008BEB95E00E94580D81E691E00E94880E20
:101EC00040E061E087E995E00E94580D84E791E0E9
:101ED0000E94880E41E061E089EA95E00E94580D79
:101EE00087E891E00E94880E1092570210925602E5
:101EF00010925502109254020E94730A8AE991E0EE
:101F00000E94880E10924D0510924B0510924805C4
:101F1000109247058AE0809346050E94A1018B013B
:101F2000809146050E94390D61E0809146050E942E
:101F30005501FFB6F89480915802811124C0EAE956
:101F4000F0E08491EEEAF0E09491E82FF0E0EE0FFB
:101F5000FF1FEA57FF4FA591B491EC91E92321F4BB
:101F600061E08AE00E9455018AE00E94390D8CB53B
:101F700080618CBD8CB580648CBD8DE00E94390D74
:101F80008BE00E94390D809158028F5F8093580238
:101F9000FFBE82E580934005109241058091400587
:101FA000909141050E9447025AE0F52E8FEF0E9462
:101FB0000802FA94F110FACF82E495E00E944A02F6
:101FC00020E030E0A90160E082E495E00E94600238
:101FD000F82E80934C0581E0F81649F00E94A1018B
:101FE000601B710B613D774058F381E056C02AEACF
:101FF00031E040E050E068E082E495E00E94600259
:1020000082FF03C0F0924D0510C044E0F42E0E9400
:102010000F0280934C05FA94F110F9CF8A3A11F02F
:1020200082E03BC082E080934D0580914D05823077
:1020300021F0C12CD12C760105C0C12CD12CE12C72
:1020400030E4F32E20E030E0A90167E382E495E07C
:102050000E946002A701960169E282E495E00E9475
:10206000600280934C05882349F00E94A101601B07
:10207000710B613D774030F388E00FC080914D05D2
:10208000823001F520E030E0A9016AE382E495E0C6
:102090000E946002882341F086E08093470582E435
:1020A00095E00E94FD01D4C00E940F02807C803C1C
:1020B00019F483E080934D050E940F020E940F02E5
:1020C0000E940F0282E495E00E94FD0180E580936A
:1020D00040051092410581E00E940A0C882329F0F6
:1020E00080917105882341F0B3C080E00E940A0C02
:1020F000882309F4ADC0F4CF80916505803109F5DE
:1021000082E08093710510928305109284051092ED
:102110008505109286058091660590916705A0E07F
:10212000B0E025E0880F991FAA1FBB1F2A95D1F7A1
:1021300080937F0590938005A0938105B0938205DD
:102140005DC0803209F084C083E080937105809186
:10215000680590916905A0916A05B0916B0580931F
:10216000830590938405A0938505B09386058983A4
:102170009A83AB83BC83C12CD12C7601812C82E065
:10218000982EA12CB12C49815A816B817C819E01B2
:102190002F5F3F4F8EE495E00E94E504882309F409
:1021A00057C0D501C40100905B0504C0880F991F7A
:1021B000AA1FBB1F0A94D2F7C80ED91EEA1EFB1E27
:1021C00049815A816B817C8180916505803129F03C
:1021D00088EF9FEFAFEFBFE004C088EF9FEFA0E074
:1021E000B0E0481759076A077B0768F2C0927F057D
:1021F000D0928005E0928105F09282058EE495E010
:10220000909388058093870581E0809370051092F4
:102210007205109273051092740510927505109254
:102220007605109277051092780510927905109234
:102230007A0510927B0510927C0510927D05109214
:102240007E0589EA91E00E94880E0E94530BFDCF23
:102250008EEB91E0F8CFEBE5F4E01382128248EECA
:1022600053E060E070E0448355836683778388E0C1
:1022700091E09183808385EC90E09587848784EC5E
:1022800090E09787868780EC90E0918B808B81EC43
:1022900090E0938B828B82EC90E0958B848B86EC24
:1022A00090E0978B868B118E128E138E148EE8EF32
:1022B000F4E0168217821086118612861386148621
:1022C000158616861786108A118A128A138A148A2E
:1022D000158AE0E4F5E080E580831182E2E4F5E030
:1022E000158216821186138682E090E0A0E0B0E0AD
:1022F00084879587A687B78713A215A614A688E1B9
:1023000091E093A782A717A6EBE8F5E0138212826B
:10231000448355836683778380E291E09183808351
:10232000E9EAF5E010828FEF808B818BE7E9F5E039
:102330001082808B818BEBEBF5E013821282448359
:1023400055836683778380E391E091838083128E47
:10235000118E14860895EE0FFF1F0590F491E02D65
:10236000099481E090E0F8940C94D711DC0101C04D
:102370006D9341505040E0F708950E94C811A59F09
:10238000900DB49F900DA49F800D911D1124089570
:10239000A29FB001B39FC001A39F700D811D1124A6
:1023A000911DB29F700D811D1124911D0895F89407
:0223B000FFCF5D
:1023B200FFFFFFFF00000000EA0AB70BB30A910A11
:1023C200A50A310B000000001809B70B000000003D
:1023D2002A0116010E01FF00F100F00000000000CA
:1023E200A800290987003B01FF057707564D445095
:1023F200565F317C315F564D4450560D0A0053658D
:1024020074757020583120494F426F6172642031D7
:1024120000536574757020583120494F426F6172C4
:1024220064203200536574757020583220494F423F
:102432006F617264203100536574757020583220C8
:10244200494F426F61726420320052544320436FFD
:102452006E6E65637465642E00534420436172643A
:1024620020696E697469616C697A65642E00696EAF
:10247200697469616C697A6174696F6E20666169F9
:062482006C6564210000FE
:00000001FF
