:100000000C945D000C9485000C9485000C94850084
:100010000C9485000C9485000C9485000C9485004C
:100020000C9485000C9485000C9485000C9485003C
:100030000C9485000C9485000C9485000C9485002C
:100040000C94C5090C9485000C943B090C9415097B
:100050000C9485000C9485000C9485000C9485000C
:100060000C94FB060C9485000000000800020100BF
:100070000003040700000000000000000000000072
:10008000250028002B0000000000240027002A0083
:10009000040404040404040402020202020203032E
:1000A0000303030301020408102040800102040836
:1000B0001020010204081020D41011241FBECFEF1D
:1000C000D8E0DEBFCDBF11E0A0E0B1E0E0EEF2E2AB
:1000D00002C005900D92A63CB107D9F725E0A6EC29
:1000E000B1E001C01D92AE37B207E1F710E0CDE5F7
:1000F000D0E004C02197FE010E944D11CC35D107FC
:10010000C9F70E946D0E0C946E110C940000DC0176
:100110005996ED91FC915A973097B9F0838994895B
:10012000A589B6894285538564857585841B950BA1
:10013000A60BB70B811520E89207A105B10538F091
:100140008FEF9FE7A0E0B0E0089580E090E0089591
:10015000CF93DF931F92CDB7DEB76983DC01ED91BA
:10016000FC910280F381E02D41E050E0BE016F5F21
:100170007F4F09950F90DF91CF91089585ED809382
:10018000BC008091BC0084FDFCCF10920E0208954B
:100190004091E801262F30E0240F311D2132310536
:1001A000DCF420910E022430C9F4FC0180E090E0E0
:1001B000861758F43091E8012191DC01AA53BE4F13
:1001C000A30FB11D2C930196F3CF8091E801680F26
:1001D0006093E80180E0089581E0089582E0089549
:1001E000089581E090E030913A022091390232176F
:1001F00010F480E090E091958195910908958091A7
:100200003A0290913902891730F48F5F80933A0255
:1002100080E090E008958FEF9FEF0895809139027C
:1002200090E020913A02821B91090895CF93DF93C9
:1002300000D0CDB7DEB7CB01642F49835A830E942B
:10024000C8004981842F5A81952F0F900F90DF911C
:10025000CF910895CF93DF931F92CDB7DEB7698317
:1002600061E0CE0101960E94C80081E090E00F900D
:10027000DF91CF910895CF93DF93FC01248127FF75
:100280002EC0EC01668577858089918941E00E94C6
:100290004A0A882341F1EA8980E2E89FF0011124AB
:1002A000DF01A75BBD4F1097F1F08D81823050F4D4
:1002B0004B895C896D897E895C964D935D936D93C6
:1002C0007C935F978F89988DA98DBA8DE75BFD4FE1
:1002D000938F828FB58BA48B8C818F778C83DF91EA
:1002E000CF910C940F0A80E0DF91CF910895FC012B
:1002F000818D928D009729F0FC01258121110C94AC
:100300003B0108958F929F92AF92BF92CF92DF925E
:10031000EF92FF920F931F93CF93DF93EC018D81A8
:10032000811102C080E077C00B891C892D893E892C
:100330000417150726073707A8F36A017B018230E7
:1003400029F4CA86DB86EC86FD860DC0C114D10473
:10035000E104F10451F41E821F82188619861A8660
:100360001B861C861D8681E056C08A849B84AC84D3
:10037000BD84EB8DFC8D258530E0275F3F4FB501B7
:10038000A4014150510961097109022E04C07695FA
:100390006795579547950A94D2F7D701C6010197FB
:1003A000A109B10904C0B695A795979587952A9597
:1003B000D2F784179507A607B70720F089288A285F
:1003C0008B2849F44F89588D698D7A8D4E835F83D0
:1003D0006887798704C0841B950BA60BB70B4C016B
:1003E0005D018E010A5F1F4F81149104A104B104C5
:1003F00009F4A7CF4E815F816885798598018B8D3F
:100400009C8D0E94330B91E0891A9108A108B108D4
:100410008111EACF87CFDF91CF911F910F91FF908C
:10042000EF90DF90CF90BF90AF909F908F90089506
:100430003F924F925F926F927F928F929F92AF9274
:10044000BF92CF92DF92EF92FF920F931F93CF93C1
:10045000DF93CDB7DEB72C970FB6F894DEBF0FBE93
:10046000CDBF5C01DC015B968D909C905C971696ED
:10047000CD90DD90ED90FC901997C114D104E1046A
:10048000F10439F0BFEFCB1ADB0AEB0AFB0A312C7F
:1004900007C0F401C080D180E280F380332433941C
:1004A000F40181859285A385B4859C01AD012F5F00
:1004B0003F4F4F4F5F4F29873A874B875C87260115
:1004C00037011D821E821F821886F4018185928564
:1004D000A385B4852D813E814F8158852817390722
:1004E0004A075B0708F063C089859A85AB85BC85A0
:1004F0008C159D05AE05BF0550F482E0C82ED12CA9
:10050000E12CF12C92E0492E512C612C712C9E0192
:100510002F5F3F4FB701A601C4010E94330B882310
:1005200009F445C089819A81AB81BC81892B8A2BD2
:100530008B2B41F0260137019FEF491A590A690AAE
:10054000790A05C0C414D504E604F70491F02D819E
:100550003E814F8158852F5F3F4F4F4F5F4F2D8317
:100560003E834F8358873FEFC31AD30AE30AF30A47
:10057000ACCF0FEF1FEF2FEF3FE0B301A201C4019B
:100580000E94930A882399F0D50116964D915D91AA
:100590006D917C911997411551056105710549F0DF
:1005A00093018201C4010E94930A811102C080E07C
:1005B0002AC0D50116964D925D926D927C92199744
:1005C000332051F0D301C2010196A11DB11DF401E8
:1005D00080839183A283B383F5018789908DA18D58
:1005E000B28D892B8A2B8B2B69F4D50157964D92AE
:1005F0005D926D927C925A9714968C9114978068B4
:1006000014968C9381E02C960FB6F894DEBF0FBE43
:10061000CDBFDF91CF911F910F91FF90EF90DF90B1
:10062000CF90BF90AF909F908F907F906F905F9092
:100630004F903F900895CF93DF931F92CDB7DEB7D1
:10064000FC01818D928D009751F0BE016F5F7F4F4D
:100650000E947B0D019719F4898190E002C08FEF11
:100660009FEF0F90DF91CF910895EF92FF920F933C
:100670001F93CF93DF931F92CDB7DEB7FC01818D1F
:10068000928D009701F17F01BE016F5F7F4F0E9445
:100690007B0D019719F4098110E002C00FEF1FEFE5
:1006A0000F3F8FEF180789F0F701818D928DFC01C4
:1006B00042855385648575854150510961097109E9
:1006C0000E94820102C000E010E0C8010F90DF919B
:1006D000CF911F910F91FF90EF9008958FB7F894ED
:1006E000809135028FBF089561E0FC0184810E94F2
:1006F0006D098091340281111092340208958EBDEB
:1007000000000DB407FEFDCF8EB508958FEF0C9459
:100710007F030F931F93CF93DF93EB010E94B909DF
:100720008B010E9486038F3F49F00E94B909601B2C
:10073000710B6C177D07A8F380E001C081E0DF91A9
:10074000CF911F910F910895CF93DF93EC018E818C
:10075000882389F08F8198859C012F5F3F4F3887D0
:100760002F838230924018F40E948603F3CFCE018B
:100770000E9474031E82DF91CF9108958CBD9DBDB0
:100780000895CF93DF93EC0180913402811109C069
:1007900081E0809334028091E8049091E9040E9402
:1007A000BE0360E08C81DF91CF910C946D09CF92F4
:1007B000DF92FF920F931F93CF93DF9300D000D06F
:1007C000CDB7DEB76C01F62E29833A834B835C8369
:1007D0000E94A403C6010E94C1036CE271E0C6013D
:1007E0000E9489038F2D80640E947F0308E110E03E
:1007F0005C814B813A812981DA01C901002E04C054
:10080000B695A795979587950A94D2F729833A8349
:100810004B835C830E947F030850110929813A8130
:100820004B815C81083F8FEF180731F7FF2029F0DB
:10083000E8E0FE1204C087E803C085E901C08FEF3D
:100840000E947F0310E00E948603F601828787FFE3
:1008500004C01F3F11F01F5FF6CF0F900F900F9055
:100860000F90DF91CF911F910F91FF90DF90CF906C
:100870000895AF92BF92CF92DF92EF92FF920F93C3
:100880001F93CF93DF93EC016901C801820F931F7F
:100890008130924008F070C08E81882371F0888189
:1008A0009981AA81BB81481759076A077B0729F4F8
:1008B0008F819885C816D906B0F5488359836A8315
:1008C0007B838B85833039F089E0440F551F661F89
:1008D000771F8A95D1F79A01AB0161E1CE010E94A1
:1008E000D703882319F083E08D8346C00E94B9099D
:1008F0005B010E9486038A878F3F49F40E94B909F1
:100900006A197B096D327140A0F38FE003C08E3FFE
:1009100031F08DE08D83CE010E9474032DC01886C6
:100920001F8281E08E838F8198858C159D0540F410
:100930000E9486038F819885019698878F83F3CFD5
:100940006701E00EF11ECE14DF0431F00E94860331
:10095000F60181936F01F7CF8F819885080F191FDA
:1009600018870F838985882319F00115124048F0F4
:10097000CE010E94A40305C0CE010E94740380E052
:1009800001C081E0DF91CF911F910F91FF90EF9017
:10099000DF90CF90BF90AF900895EF92FF920F93AA
:1009A0001F93CF93DF93EC01790141155105610548
:1009B000710511F482E13CC08B85833039F089E008
:1009C000440F551F661F771F8A95D1F79A01AB0117
:1009D00068E1CE010E94D703882311F084E028C08B
:1009E0008EEF0E947F0387018EEFF81AF801819144
:1009F0008F010E947F030E151F05C1F78FEF0E9424
:100A00007F038FEF0E947F030E9486038A878F7186
:100A1000853031F081E18D83CE010E94740309C0DD
:100A200068E572E0CE010E948903811107C085E16B
:100A30008D83CE010E94740380E013C020E030E07B
:100A4000A9016DE0CE010E94D703811104C00E946C
:100A50008603882311F084E1EBCFCE010E9474035A
:100A600081E0DF91CF911F910F91FF90EF9008955A
:100A70002F923F924F925F926F927F928F929F92AE
:100A8000AF92BF92CF92DF92EF92FF920F931F939C
:100A9000CF93DF9300D000D0CDB7DEB78C015B01E0
:100AA0001A01DC0115968C9115978130C9F41496C2
:100AB0008C9181FF15C082FF1DC0F80143895489C4
:100AC0006589768982859385A485B5858417950780
:100AD000A607B70779F0C8010E94820181110AC0F8
:100AE00081E090E0D80113969C938E93129780E05A
:100AF00090E03DC1610183C0D8015B968D919C91CE
:100B00005C97FC01248121502A013B0139E0769455
:100B10006794579447943A95D1F7722E74207A01CE
:100B2000F1E0FF22772009F476C080E092E08E1990
:100B30009F0946018C159D0508F44C01D8015B9670
:100B40002D913C915C9716968D919D910D90BC9145
:100B5000A02D0297A109B109F901058404C0880FED
:100B6000991FAA1FBB1F0A94D2F746855785608933
:100B70007189840F951FA61FB71F9C01AD01270D1A
:100B8000311D411D511D29013A01811432E09306A6
:100B900009F088C08091000190910101A0910201AB
:100BA000B091030184159505A605B70559F48FEF9B
:100BB0009FEFDC018093000190930101A09302015B
:100BC000B09303019501B301A20180914904909172
:100BD0004A040E94CD04882309F482CF9EEFB91AFB
:100BE000C818D908F80182859385A485B585880D34
:100BF000991DA11DB11D82879387A487B587D80150
:100C00001A964D915D916D917C911D97C114D104FF
:100C100009F072CF87C0E114F10409F086CF16966F
:100C20004D915D916D917C9119974115510561052B
:100C3000710559F457968D919D910D90BC91A02D01
:100C40000097A105B10541F521C09E012F5F3F4FDF
:100C50000E94330B882309F44BCF89819A81AB81A1
:100C6000BC81F801238D348DF9012789203129F0C9
:100C700048EF5FEF6FEF7FE004C048EF5FEF60E0A9
:100C800070E084179507A607B70730F0C8010E94E7
:100C9000180281114ACF24CFF80186839783A08759
:100CA000B18743CFE114F10429F5D8011A964D918B
:100CB0005D916D917C911D9753968D919D910D90B5
:100CC000BC91A02D481759076A077B0798F00E942E
:100CD0000F0A882309F404CF4092000150920101C9
:100CE00060920201709203018091360281608093CC
:100CF000360208C041E0C301B2010E944A0A8823BB
:100D000009F4EECED501F701E75BFD4FCF01880D69
:100D1000991DE817F90719F02D912193FACFA80C26
:100D2000B91C5ECF53968D919D910D90BC91A02DD5
:100D300084179507A607B70740F4F801438B548B37
:100D4000658B768B848180688483D80114968C911E
:100D500083FD02C0C1010BC0F8018581882309F41D
:100D6000BFCEC8010E943B018111F4CFB9CE0F90D4
:100D70000F900F900F90DF91CF911F910F91FF90E7
:100D8000EF90DF90CF90BF90AF909F908F907F902B
:100D90006F905F904F903F902F900895CF93DF9387
:100DA0001F92CDB7DEB7698341E050E0BE016F5FAF
:100DB0007F4F0E9438050F90DF91CF910895CF9318
:100DC000DF93EC01898D9A8D009739F481E090E0F2
:100DD0009B838A8380E090E00BC0FC011382128227
:100DE0000E943805E98DFA8D22813381232B71F71A
:100DF000DF91CF9108951F920F920FB60F92112499
:100E00002F933F934F935F936F937F938F939F9312
:100E1000AF93BF93EF93FF938091B900887F8036A3
:100E200009F49CC068F5883209F45BC090F4803105
:100E300009F454C038F4882309F4F6C0883009F462
:100E40004DC0F6C0883109F44CC0803209F45DC051
:100E5000EFC0803409F468C048F4803309F455C009
:100E6000883309F0E5C080930D02D8C0803509F4BD
:100E70004FC0883509F45DC0883409F0D9C0D6C0A8
:100E8000883909F4C7C0A8F4883709F467C038F472
:100E9000883609F463C0803709F460C0C9C0883857
:100EA00009F4B8C0803909F45FC0803809F0C0C0C7
:100EB0005BC0803B09F486C038F4803A09F466C010
:100EC000883A09F47FC0B4C0803C09F4A7C0883CCC
:100ED00009F4A4C0883B09F48AC0AAC080913302F7
:100EE00010C09091320280913102981770F5E09114
:100EF000320281E08E0F80933202F0E0EF5EFD4F10
:100F000080818093BB0085EC86C080930D028EC0EB
:100F1000E091320281E08E0F809332028091BB001B
:100F2000F0E0EF5EFD4F80839091320280913102BC
:100F30006EC0E091320281E08E0F80933202809188
:100F4000BB00F0E0EF5EFD4F8083809110028111C5
:100F50006DC081E080930F0284EA61C083E08093DA
:100F60000E0210920C02CFCF80910C02803208F05A
:100F700051C0E0910C0281E08E0F80930C028091B1
:100F8000BB00F0E0E451FE4F8083BDCF85EC809341
:100F9000BC0010920E0280910C02803230F4E0917D
:100FA0000C02F0E0E451FE4F108260910C0270E000
:100FB000E091EA01F091EB018CEE91E0099510923D
:100FC0000C0236C084E080930E021092E901109268
:100FD000E801E091E601F091E70109958091E801CF
:100FE000811105C081E08093E8011092C601E09173
:100FF000E90181E08E0F8093E901F0E0EA53FE4FB2
:1010000080818093BB009091E9018091E80198175D
:1010100008F479CF85E88093BC000AC085EC809302
:10102000BC0010920E0204C010920D020E94BE007D
:10103000FF91EF91BF91AF919F918F917F916F91B0
:101040005F914F913F912F910F900FBE0F901F9086
:10105000189510920E0281E08093100210920F02F8
:1010600061E082E10E946D0961E083E10E946D0907
:10107000E9EBF0E080818E7F808380818D7F8083AB
:1010800088E48093B80085E48093BC000895FC0157
:10109000918D828D981761F0828DDF01A80FB11DAF
:1010A0005D968C91928D9F5F9F73928F90E00895D3
:1010B0008FEF9FEF0895FC01918D828D981731F08D
:1010C000828DE80FF11D858D90E008958FEF9FEFE1
:1010D0000895FC01918D228D892F90E0805C9F4FB7
:1010E000821B91098F73992708958BE494E00E94E5
:1010F000690821E0892B09F420E0822F0895FC0182
:10110000848DDF01A80FB11DA35ABF4F2C91848D90
:1011100090E001968F739927848FA689B7892C93C5
:10112000A089B1898C9180648C93938D848D981360
:1011300006C00288F389E02D80818F7D8083089529
:10114000EF92FF920F931F93CF93DF93EC0181E017
:10115000888F9B8D8C8D981305C0E889F9898081D3
:1011600085FD24C0F62E0B8D10E00F5F1F4F0F730F
:101170001127E02E8C8DE8120CC00FB607FCFACFB9
:10118000E889F989808185FFF5CFCE010E947F082B
:10119000F1CF8B8DFE01E80FF11DE35AFF4FF08276
:1011A0000B8FEA89FB898081806207C0EE89FF8905
:1011B0006083E889F98980818064808381E090E0A0
:1011C000DF91CF911F910F91FF90EF900895CF93F2
:1011D000DF93EC01888D8823C9F0EA89FB8980813F
:1011E00085FD05C0A889B9898C9186FD0FC00FB611
:1011F00007FCF5CF808185FFF2CFA889B9898C9152
:1012000085FFEDCFCE010E947F08E7CFDF91CF9120
:10121000089580E090E0892B29F00E9475088111E3
:101220000C94000008950E9462111F920F920FB655
:101230000F9211242F933F934F935F936F937F935C
:101240008F939F93AF93BF93EF93FF938BE494E0BF
:101250000E947F08FF91EF91BF91AF919F918F9175
:101260007F916F915F914F913F912F910F900FBEA2
:101270000F901F9018951F920F920FB60F92112486
:101280002F938F939F93EF93FF93E0915B04F091E3
:101290005C048081E0916104F091620482FD12C0DF
:1012A0009081809164048F5F8F7320916504821711
:1012B00051F0E0916404F0E0E55BFB4F958F809383
:1012C000640401C08081FF91EF919F918F912F91D4
:1012D0000F900FBE0F901F90189590E0FC01E859F9
:1012E000FF4F3491FC01EC55FF4F2491FC01E05776
:1012F000FF4FE491EE2309F43BC0332339F133303F
:1013000091F038F43130A9F0323001F584B58F7D99
:1013100012C0373091F03830A1F03430B9F48091F8
:1013200080008F7D03C0809180008F778093800044
:101330000DC084B58F7784BD09C08091B0008F77D0
:1013400003C08091B0008F7D8093B000F0E0EE0F7D
:10135000FF1FE458FF4FA591B4918FB7F894EC911B
:10136000611103C020952E2301C02E2B2C938FBF1B
:1013700008952FB7F89460914402709145028091CE
:101380004602909147022FBF08951F920F920FB609
:101390000F9211242F933F938F939F93AF93BF93FB
:1013A0008091440290914502A0914602B09147027B
:1013B0003091430223E0230F2D3720F40196A11D25
:1013C000B11D05C026E8230F0296A11DB11D209373
:1013D00043028093440290934502A0934602B09347
:1013E000470280913F0290914002A0914102B0914A
:1013F00042020196A11DB11D80933F0290934002CD
:10140000A0934102B0934202BF91AF919F918F91FF
:101410003F912F910F900FBE0F901F9018958091C4
:1014200036028823A9F14091000150910101609199
:1014300002017091030129E432E080914904909106
:101440004A040E94CD04811102C080E008954091B9
:101450003B0250913C0260913D0270913E02411569
:1014600051056105710591F029E432E0809149044C
:1014700090914A040E94CD04882339F310923B02D4
:1014800010923C0210923D0210923E0210923602DF
:1014900081E008958F929F92AF92BF92EF92FF9258
:1014A0000F931F93CF934B015C01C42F80910001D8
:1014B00090910101A0910201B09103018815990555
:1014C000AA05BB0501F10E940F0A811102C080E04C
:1014D00020C089E4E82E82E0F82E00E012E020E04F
:1014E00030E0B501A4018091490490914A040E9422
:1014F0003904882361F38092000190920101A09247
:101500000201B092030180913602C82BC0933602CB
:1015100081E0CF911F910F91FF90EF90BF90AF901E
:101520009F908F9008954F925F926F927F928F92CB
:101530009F92AF92BF92CF92DF92EF92FF920F9362
:101540001F93CF93DF93EC016A017B0128013901DE
:10155000423051056105710510F480E073C0898542
:101560009A85AB85BC850196A11DB11D8417950791
:10157000A607B70790F38B889C88AD88BE888F89B3
:10158000803129F4BB27AF2D9E2D8D2D09C0DB01A5
:10159000CA0147E0B695A795979587954A95D1F7E3
:1015A000880E991EAA1EBB1E809100019091010118
:1015B000A0910201B091030188169906AA06BB0604
:1015C00079F48F898031A1F4DD24EE24FF24C60153
:1015D000880F991FFC01E75BFD4F5182408219C0C3
:1015E00040E0C501B4010E944A0A8111EACFB5CF9B
:1015F000E894C7F8DD24EE24FF24C601880F991F64
:10160000880F991FFC01E75BFD4F40825182628287
:101610007382809136028160809336028A8982309B
:1016200080F08D819E81AF81B885880E991EAA1E9B
:10163000BB1E80923B0290923C02A0923D02B0926F
:101640003E0281E0DF91CF911F910F91FF90EF90CB
:10165000DF90CF90BF90AF909F908F907F906F90D2
:101660005F904F9008958F929F92AF92BF92CF92CA
:10167000DF92EF92FF920F931F93CF93DF93FC01C2
:1016800081859285A385B4850196A11DB11D84171E
:101690009507A607B70710F480E05CC0838994899A
:1016A000A589B689C789C03129F4852E962EA72E23
:1016B000BB2409C04A015B01C7E0B694A794979484
:1016C0008794CA95D1F7E9016A017B018F01BC01BA
:1016D000CD01680D791D8A1D9B1D809000019090A1
:1016E0000101A0900201B0900301681579058A05F7
:1016F0009B0599F4F80187898031A9F4B701A60107
:10170000552766277727440F551FFA01E75BFD4FE2
:1017100080819181A0E0B0E018C040E00E944A0AB8
:101720008111E8CFB9CFB701A6014F7755276627BA
:101730007727440F551F440F551FFA01E75BFD4FF4
:1017400080819181A281B381BF7088839983AA83AC
:10175000BB8381E0DF91CF911F910F91FF90EF90BC
:10176000DF90CF90BF90AF909F908F900895CF92D1
:10177000DF92EF92FF920F931F93CF93DF936C0151
:101780007A018B01C0E0D0E0CE15DF0589F0D801E9
:101790006D918D01D601ED91FC910190F081E02DCC
:1017A000C6010995892B11F47E0102C02196ECCF68
:1017B000C701DF91CF911F910F91FF90EF90DF90C4
:1017C000CF900895CF93DF93009779F0FC010190BB
:1017D0000020E9F73197AF01481B590BBC018BE49E
:1017E00094E00E94B70BEC0102C0C0E0D0E042E000
:1017F00050E063EC71E08BE494E00E94B70B8C0F37
:101800009D1FDF91CF9108958F929F92AF92BF92CB
:10181000CF92DF92EF92FF92CF93DF93C82F8AEEA1
:1018200094E090934A0480934904CC2369F1C53035
:1018300010F080E00DC140E060E070E0CB010E945C
:101840004A0A8823B1F320E1C29FC0011124875CBA
:101850009D4FFC01E254FE4F20812F7751F73C96BB
:101860004081518162817381443651056105710562
:1018700000F33497C080D180E280F380C114D1049A
:10188000E104F10421F4D5CFC12CD12C760140E044
:10189000C701B6010E944A0A882359F28091540276
:1018A000909155028115924021F6A0915902AA23E8
:1018B00009F4BFCF6091570270915802611571050C
:1018C00009F4B7CF20915602222309F4B2CFA09396
:1018D00008052093FA0480E030E0E1E0F0E0C82F52
:1018E000AF01082E02C0440F551F0A94E2F72417D7
:1018F000350741F0982F8F5F983089F789E0809302
:10190000030597CF8093030520915F023091600219
:101910002115310519F040E050E008C020916D021A
:1019200030916E0240916F02509170022093FB043F
:101930003093FC044093FD045093FE04460157018C
:10194000860E971EA11CB11C8092090590920A0573
:10195000A0920B05B0920C05E0915A02F0915B0247
:10196000F0930F05E0930E05B0E00E944211860E41
:10197000971EA81EB91E8092100590921105A09284
:101980001205B092130585E0EE0FFF1F8A95E1F76F
:10199000E150FE4FEF2FFF27E6958E0E9F1EA11CF4
:1019A000B11C8092040590920505A0920605B092A4
:1019B000070520915C0230915D022115310521F06F
:1019C000A90160E070E008C04091690250916A028C
:1019D00060916B0270916C02D701C6018819990958
:1019E000AA09BB09840F951FA61FB71F04C0B6958F
:1019F000A79597958795CA95D2F78093FF04909302
:101A00000005A0930105B0930205853F2FE09207E2
:101A1000A105B10510F48CE018C0853F9F4FA105CA
:101A2000B10510F480E111C08091750290917602A9
:101A3000A0917702B09178028093100590931105E0
:101A4000A0931205B093130580E280930D0581E009
:101A5000DF91CF91FF90EF90DF90CF90BF90AF904C
:101A60009F908F90089590E0FC01EC55FF4F2491DA
:101A7000FC01E057FF4F8491882399F090E0880F94
:101A8000991FFC01EA57FF4FA591B491FC01E4585E
:101A9000FF4F859194918FB7F894EC91E22BEC93E2
:101AA0008FBF0895CF93DF93EC01662311F082E09E
:101AB00001C080E0442311F094E001C090E0892B44
:101AC000806288838FEF888B898B45E050E06FEFD1
:101AD00070E0CE0101960E946711269685E0FE0116
:101AE000982F11929A95E9F7FE0111928A95E9F7DC
:101AF000DF91CF9108952F923F924F925F926F9214
:101B00007F928F929F92AF92BF92CF92DF92EF928D
:101B1000FF920F931F93CF93DF93EC015B018D81B5
:101B2000811103C08FEF9FEFC5C08C8180FFFACF7A
:101B300081E04B885C886D887E884A855B856C85F2
:101B40007D85441655066606770609F480E090E028
:101B50003C014E01E6E08E0E911C892B09F472C007
:101B60004A855B856C857D856A0121E0D2222D81C5
:101B70001A012B0189E056944794379427948A954B
:101B8000D1F78B8D9C8DFC01223059F4828D938D81
:101B9000A48DB58DBC01CD01620D731D841D951DF5
:101BA00040C0148111501221C114D104C9F4111183
:101BB00017C0452B462B472B49F48F89988DA98D4B
:101BC000BA8D8E839F83A887B9870AC04E815F81B3
:101BD0006885798594010E94330B882309F4A2CF8C
:101BE000EB8DFC8D8E819F81A885B9850297A10917
:101BF000B109AC01BD01058404C0440F551F661F27
:101C0000771F0A94D2F786859785A089B189840FBA
:101C1000951FA61FB71FBC01CD01610F711D811D4E
:101C2000911D2C8126FF10C000910001109101012F
:101C30002091020130910301601771078207930719
:101C400031F502C0C30136C040E00E944A0A882331
:101C500009F468CFF601E75BFD4FD501CF0101968E
:101C6000E817F90719F021912D93FACF2FEFA21A57
:101C7000B20A8A859B85AC85BD850196A11DB11DE3
:101C80008A879B87AC87BD8780E090E066CF75012F
:101C900001E010E09601AB01BC01809149049091F4
:101CA0004A040E943904882309F43CCFFFEFAF1A9D
:101CB000BF0ADFCFDF91CF911F910F91FF90EF907F
:101CC000DF90CF90BF90AF909F908F907F906F905C
:101CD0005F904F903F902F900895CF93DF9300D067
:101CE00000D0CDB7DEB7789484B5826084BD84B56A
:101CF000816084BD85B5826085BD85B5816085BD07
:101D000080916E00816080936E00109281008091BE
:101D10008100826080938100809181008160809346
:101D20008100809180008160809380008091B1006B
:101D300084608093B1008091B00081608093B00096
:101D400080917A00846080937A0080917A0082602A
:101D500080937A0080917A00816080937A008091EC
:101D60007A00806880937A001092C100E0915B0451
:101D7000F0915C0482E08083E0915704F091580474
:101D80001082E0915904F0915A048FEC80831092F4
:101D90006304E0915F04F091600486E08083E09149
:101DA0005D04F0915E04808180618083E0915D0438
:101DB000F0915E04808188608083E0915D04F09101
:101DC0005E04808180688083E0915D04F0915E0410
:101DD00080818F7D808310923A0210923902109296
:101DE0003802109237020E94290840E060E081E545
:101DF00095E00E94520D8CE391E00E94E20B41E0DD
:101E000060E083E695E00E94520D8FE491E00E942D
:101E1000E20B40E061E08FE395E00E94520D82E624
:101E200091E00E94E20B41E061E081E595E00E94D3
:101E3000520D85E791E00E94E20B10923A02109257
:101E4000390210923802109237020E94290888E85D
:101E500091E00E94E20B1092F5041092F3041092AC
:101E6000F0041092EF048AE08093EE040E94B90916
:101E70008B018091EE040E94330D61E08091EE04AD
:101E80000E946D09FFB6F89480914802811124C028
:101E9000EAE9F0E08491EEEAF0E09491E82FF0E0D6
:101EA000EE0FFF1FEA57FF4FA591B491EC91E92384
:101EB00021F461E08AE00E946D098AE00E94330DFE
:101EC0008CB580618CBD8CB580648CBD8DE00E942A
:101ED000330D8BE00E94330D809148028F5F809319
:101EE0004802FFBE82E58093E8041092E9048091E5
:101EF000E8049091E9040E94BE035AE0F52E8FEFAA
:101F00000E947F03FA94F110FACF8AEE94E00E94C7
:101F1000C10320E030E0A90160E08AEE94E00E9475
:101F2000D703F82E8093F40481E0F81649F00E945C
:101F3000B909601B710B613D774058F381E056C0D1
:101F40002AEA31E040E050E068E08AEE94E00E9446
:101F5000D70382FF03C0F092F50410C044E0F42ED2
:101F60000E9486038093F404FA94F110F9CF8A3A20
:101F700011F082E03BC082E08093F5048091F5048B
:101F8000823021F0C12CD12C760105C0C12CD12C7E
:101F9000E12C30E4F32E20E030E0A90167E38AEE83
:101FA00094E00E94D703A701960169E28AEE94E0CB
:101FB0000E94D7038093F404882349F00E94B90952
:101FC000601B710B613D774030F388E00FC080915A
:101FD000F504823001F520E030E0A9016AE38AEEE1
:101FE00094E00E94D703882341F086E08093EF04B9
:101FF0008AEE94E00E947403D2C00E948603807C23
:10200000803C19F483E08093F5040E9486030E94CB
:1020100086030E9486038AEE94E00E94740380E5A2
:102020008093E8041092E90481E00E94040C882364
:1020300029F080911905882341F0B1C080E00E9409
:10204000040C882309F4ABC0F4CF80910D058031D6
:1020500009F582E08093190510922B0510922C054A
:1020600010922D0510922E0580910E0590910F056E
:10207000A0E0B0E025E0880F991FAA1FBB1F2A959A
:10208000D1F78093270590932805A0932905B09355
:102090002A055DC0803209F082C083E08093190573
:1020A0008091100590911105A0911205B091130532
:1020B00080932B0590932C05A0932D05B0932E05AE
:1020C00089839A83AB83BC83C12CD12C7601812C6C
:1020D00082E0982EA12CB12C49815A816B817C81A0
:1020E0009E012F5F3F4F86EF94E00E94330B8823C1
:1020F00009F455C0D501C4010090030504C0880F40
:10210000991FAA1FBB1F0A94D2F7C80ED91EEA1E38
:10211000FB1E49815A816B817C8180910D05803144
:1021200029F088EF9FEFAFEFBFE004C088EF9FEF8B
:10213000A0E0B0E0481759076A077B0768F2C09231
:102140002705D0922805E0922905F0922A0586EF0E
:1021500094E09093300580932F0581E080931805DB
:1021600010921A0510921B0510921C0510921D0565
:1021700010921E0510921F05109220051092210545
:102180001092220510922305109224051092250525
:102190001092260587E991E00E94E20BFFCF8CEABE
:1021A00091E00E94E20BFACFEBE4F4E0138212829A
:1021B00048EE53E060E070E04483558366837783A4
:1021C00088E091E09183808385EC90E09587848717
:1021D00084EC90E09787868780EC90E0918B808BF1
:1021E00081EC90E0938B828B82EC90E0958B848BDA
:1021F00086EC90E0978B868B118E128E138E148E48
:10220000E8EEF4E080E580831182EAEEF4E01582E6
:1022100016821186138682E090E0A0E0B0E0848709
:102220009587A687B78713A215A614A688E191E023
:1022300093A782A717A6E3E3F5E0138212824483F3
:1022400055836683778380E291E091838083E1E523
:10225000F5E010828FEF808B818BEFE3F5E0108249
:10226000808B818BE3E6F5E01382128244835583F1
:102270006683778380E391E091838083128E118E51
:10228000148608950E945311A59F900DB49F900D40
:10229000A49F800D911D11240895EE0FFF1F05903E
:1022A000F491E02D0994A29FB001B39FC001A39FB8
:1022B000700D811D1124911DB29F700D811D11247F
:1022C000911D089581E090E0F8940C946E11DC016A
:1022D00001C06D9341505040E0F70895F894FFCF4E
:1022E000FFFFFFFF00000000A008B70B69084708C8
:1022F0005B08E70800000000CE06B70B00000000F6
:102300002A0116010E01FF00F100F000000000009C
:10231000A800DF0687001B0335037701536574753A
:102320007020583120494F426F6172642031005350
:102330006574757020583120494F426F6172642076
:102340003200536574757020583220494F426F61D6
:102350007264203100536574757020583220494FE3
:10236000426F61726420320052544320436F6E6E9C
:1023700065637465642E0053442043617264206970
:102380006E697469616C697A65642E00696E69743E
:1023900069616C697A6174696F6E206661696C65E8
:0623A0006421000D0A009B
:00000001FF
